:03000000020030CB
:200030001200B01200D374D012011A746B12011A740012011A1200F61200D374D012011A8D
:20005000744312011A1200D374D112011A1201951200F6F4F50080E0C08F758F04C0B2751E
:20007000B20175C8FF75C9FF75B20075C900D0B2D08F22C08F758F04C0B275B20143A00FF9
:2000900043A10F75B20053A1F0D0B2D08F22C08F758F04C0B275B20075B1FFD0B2D08F2237
:2000B000C08F758F04C0B275B200D287D28375B203D283D28775B20043860853867FD0B2E8
:2000D000D08F22C08F758F04C0B275B200D283D2874386801201D4C2871201D4C283120139
:2000F000D4D0B2D08F22C08F758F04C0B275B200438680C2871201D4D2831201D4D2871209
:2001100001D453867FD0B2D08F22C0E0C0F0C08F758F04C0B275B20075F0084386803392E4
:20013000871201D4D2831201D4C283D5F0F053867F1201D4D283A2871201D4C283D0B2D0D0
:200150008FD0F0D0E022C08F758F04C0B275B200C0F0C0D075F00853867F1201D4D283A29B
:2001700087331201D4C283D5F0F0438680C2871201D4D2831201D4C28353867FD0D0D0F022
:20019000D0B2D08F22C08F758F04C0B275B200C0F0C0D075F00853867F1201D4D283A287F2
:2001B000331201D4C283D5F0F0438680D2871201D4D2831201D4C28353867FD0D0D0F0D089
:2001D000B2D08F22C0E0C0D075E01AD5E0FDD0D0D0E022C0E0C0D0C0F075F0321201FCD5BE
:2001F000F0FAD5E0F4D0F0D0D0D0E022C0E0C0D075E0641201D4D5E0FAD0D0D0E022C0E099
:20021000C0D0C0F01200B075F0FD1203B274101203ABD5E0FA743012036A1203AB74301217
:20023000036A1203AB743012036A1203AB742012036A1203AB74281203541203AB740F1271
:2002500003541203AB74011203541203AB74061203541203ABD0F0D0D0D0E022C0E0C0D0D4
:20027000B480005046B42000503CB40C077401120354803AB40107740F1203548030B402D7
:2002900007740E1203548026B40307740C120354801CB40D0774021203548012B40A0F74F9
:2002B000C0120354800812031A8003120354D0D0D0E022C0E0C0D0540F2430B43A004002D9
:2002D000240712031AD0D0D0E022C0E0C0D0C41202C3C41202C3D0D0D0E022C0E0C0D0E555
:2002F000831202DAE5821202DAD0D0D0E022C0E0C0D0C083C082E493600712026CA30203FB
:2003100006D082D083D0D0D0E022C0E0C0D012032AC412032AD0D0D0E022C0E0C0D0C0F0EC
:200330001203CBD2F0C2F154F0030353F0C342F01203B2D2F11203B2C2F11203B2D0F0D07B
:20035000D0D0E022C0E0C0D012036A1203ABC412036A1203ABD0D0D0E022C0E0C0D0C0F027
:200370001203CBC2F0C2F154F0030353F0C342F01203B2D2F11203B2C2F11203B2D0F0D04B
:20039000D0D0E022744012035474009312031A20E703A380F47480120354221201FC120196
:2003B000FC22C0E0C0D01200D3744012011AE5F012011A1200F6D0D0D0E022C0E0C0D0125B
:2003D00000D3744112011A1201951200F6F5F0D0D0D0E022C0F01203CBC2F61203B2D0F082
:2003F00022C0F01203CBD2F61203B2D0F022C0F01203CBC2F71203B2D0F022C0F01203CB48
:20041000D2F71203B2D0F02208200800C0E0C08F758F04C0B2C0BF75BF0075B2025390FD05
:200430004390015391FE43910275B2005391FE43910275985075BE9B75BD11D0BFD0B2D0F2
:200450008FD0E022F5993099FDC29922C0E0C0D0540F12054C1204541204B5D0D0D0E022BD
:20047000C0E0C0D0C0E0C412045CD0E012045CD0D0D0E022C0E0C0D0E583120470E582123B
:200490000470D0D0D0E022C0E0C0D0C082C083E49360091204541204B5A380F3D083D082E1
:2004B000D0D0D0E022C0E0C0D0109805D0D0D0E022E599B413F61098F380FB3098FDC298FB
:2004D000E599221204CB12053F120556400EC4F81204CB12053F1205564001482278501295
:2004F00004CB547F12053FB40D02F622B40813B85007740712045480E6189004181204977F
:2005100080DD12053140EBB86E0280E6F60880E478507950E6B4200508B870F822F70980F1
:20053000F7B420004007B47F005002C322D322B47B005007B461004002942022B40A004089
:20055000022407243022C394304010B40A00400A94074007B41000B34001C322E612055637
:200570002212056C4009C4F90812056C40014922120571400AF583081205714002F58222D4
:20059000C08F758F0475D10075CAB075CE0A75CC8075D10675CC01D08F22C08F758F0475D6
:2005B000D10675CB2075D1000000E5CB20E0FB75D102E5CB85CAF0D08F22C08F758F04757F
:2005D000D10675CB1075D1000000E5CB20E0FB75D102E5CB85CAF0D08F22C08F758F04C024
:2005F000D175D10075CA9075CE0075CC4075D10675CD01D0D1D08F22C08F758F04C0D17533
:20061000D106F5D275D1000000E5CB20E0FB75D102E5CB85CAF0D0D1D08F22C08F758F048B
:2006300075D10075CAC075CC8075D10675CC01D08F22C08F758F0475D10075CA8075CC8078
:2006500075D10675CC01D08F22C08F758F04C0D175D106F5CB75D1000000E5CB20E0FB7521
:20067000D102E5CB85CAF0D0D1D08F22C0E0C0D0C0F0C070C071C072C073C074C075C07641
:20069000C07775570075560075550075540075530075520075510075500075F040E56833AA
:2006B000F568E56933F569E56A33F56AE56B33F56BE56C33F56CE56D33F56DE56E33F56E75
:2006D000E56F33F56FE55033F550E55133F551E55233F552E55333F553E55433F554E55570
:2006F00033F555E55633F556E55733F557C3E5509560F570E5519561F571E5529562F57280
:20071000E5539563F573E5549564F574E5559565F575E5569566F576E5579567F57740185B
:20073000857757857656857555857454857353857252857151857050B3E55833F558E5599B
:2007500033F559E55A33F55AE55B33F55BE55C33F55CE55D33F55DE55E33F55EE55F33F5C3
:200770005FD5F00302077A0206ADD077D076D075D074D073D072D071D070D0F0D0D0D0E0DE
:2007900022C0E0C0D0C070C071C072C073C074C075C076C077C078C079C07AC07BC07C75C4
:2007B0007000757100757200757300757400757500757600757700757800757900757A0090
:2007D000757B00757C20EB13FBEA13FAE913F9E813F8502CEC2574F574ED3575F575EE35A2
:2007F00076F576EF3577F577E5703578F578E5713579F579E572357AF57AE573357BF57B33
:20081000C3EC33FCED33FDEE33FEEF33FFE57033F570E57133F571E57233F572E57333F540
:2008300073D57CA2A874A975AA76AB77AC78AD79AE7AAF7BD07CD07BD07AD079D078D07771
:20085000D076D075D074D073D072D071D070D0D0D0E022C0E0C0D0C070C071C072C073C08B
:2008700074C075C076757000757100757200757300757400757500757610E913F9E813F839
:200890005016EA2572F572EB3573F573E5703574F574E5713575F575C3EA33FAEB33FBE556
:2008B0007033F570E57133F571D576CEA872A973AA74AB75D076D075D074D073D072D0710F
:2008D000D070D0D0D0E022C0E0C0D0C070C071C072C073C074C075C076C077C078C079C059
:2008F0007AC07BC07C757000757100757200757300757400757500757600757700757800C6
:20091000757900757A00757B00757C20E833F8E933F9EA33FAEB33FBE57033F570E571331B
:20093000F571E57233F572E57333F573C3E5709CF574E5719DF575E5729EF576E5739FF597
:2009500077400C857470857571857672857773B3E57833F578E57933F579E57A33F57AE57F
:200970007B33F57BD57CA5AC78AD79AE7AAF7BA870A971AA72AB73D07CD07BD07AD079D051
:2009900078D077D076D075D074D073D072D071D070D0D0D0E022C0E0C0D0C070C071C0727E
:2009B000C073C074C075C076757000757100757200757300757400757500757610E833F8DA
:2009D000E933F9E57033F570E57133F571C3E5709AF572E5719BF57340068572708573718E
:2009F000B3E57433F574E57533F575D576CFAA74AB75A870A971D076D075D074D073D0726A
:200A1000D071D070D0D0D0E022C0E0C0D0E82CF8E93DF9EA3EFAEB3FFB74003400FCD0D0ED
:200A3000D0E022C0E0C0D0E82AF8E93BF974003400FAD0D0D0E022C0E0C0D0C3E89CF8E911
:200A50009DF9EA9EFAEB9FFB74009400FCD0D0D0E022C0E0C0D0C3E89AF8E99BF974009481
:200A700000FAD0D0D0E022C0E0C0D0C007C006C005C0047F007E987D967C801208D7ECC46F
:200A90007F007E0F7D427C401208D74CC0E07F007E017D867CA01208D7ECC47F007E007DAA
:200AB000277C101208D74CC0E07F007E007D037CE81208D7ECC47F007E007D007C641208A0
:200AD000D74CC0E07F007E007D007C0A1208D7ECC448F8D0E0F9D0E0FAD0E0FBD004D005BB
:200AF000D006D007D0D0D0E022C0E0C0D0C077C078C0797579057B007A0A1209A6E8C0E0B4
:200B1000EAF8EBF9D579EFD0E0FAD0E0C4F579D0E02579F9D0E0C4F579D0E02579F8D0797E
:200B3000D078D077D0D0D0E022C0D0C0F075F00A84C425F0D0F0D0D022C0E0C0D0C0F0C076
:200B500007C006C005C004C070C071C072C073C074C075C076C077887089718A728B73E5C2
:200B700070540FF574757500757600757700E57054F0C475F00AA42574F574E571540F75C8
:200B9000F064A42574F574E57535F0F575E57154F0C475F00AA475F064A42574F574E57528
:200BB00035F0F575E572540F7900F87B277A10120863E57428F574E57539F575E5763AF551
:200BD00076E5773BF577E57254F0C475F00AA47900F87B277A10120863E57428F574E575BC
:200BF00039F575E5763AF576E5773BF577E573540F7B007A007900F87F007E0F7D427C4097
:200C1000120791E57428F574E57539F575E5763AF576E5773BF577E57354F0C47B007A00DB
:200C30007900F87F007E987D967C80120791E57428F574E57539F575E5763AF576E5773B67
:200C5000F577A874A975AA76AB77D077D076D075D074D073D072D071D070D004D005D00601
:200C7000D007D0F0D0D0D0E022C0F0C0E0C0D0E8540FC0E0E8C4540F75F00AA4D0F025F099
:200C9000C0E0E954F0C4C0E0E9540F75F064A4A9F0F8D0E075F00AA475F064A428F8E9355B
:200CB000F0F9D0E028F8740039F9D0D0D0E0D0F022C0D0C0F0C070F57053700F54F0C4756F
:200CD000F00AA42570D070D0F0D0D022C083C082C0D0C08FC0B2C0BF758F0475BF0143B783
:200CF0000843B70453B6F743B60490F000A3E582458370F943B602E5B620E1FB30E0F5E5AA
:200D1000B7540F44A075BB98F5B753B7FB43B702E5B720E0FB53B7F743B610D0BFD0B2D0CE
:100D30008FD0D0D082D08322438F0122538FFE22C6
:00000001FF
