:030000000200609B
:2000600075817FC08F758F04C0B275B2007586FF7591FF75B1FFD0B2D08F121BBB121F37C6
:2000800012015E121D61D2B5121C03C2B51200AAD2B5C2B41200AAD2B4C2B51200C0D2B565
:2000A000C2B41200EFC2B4020099121C2674D0121C6D746B121C6D7400121C6D121C492263
:2000C000121C2674D0121C6D743B121C6D121C2674D1121C6D121CA912011EF532121CA969
:2000E000121CA9F53312012E121CE8121C4922121C2674D0121C6D743B121C6D121C2674CC
:20010000D1121C6D121CA912014EF530121CA9121CA9F53112013E121CE8121C49227E00C4
:200120007D007C077BE07A0079001202F3227E007D327C077BE07A0079001202F3227E643F
:200140007D007C077BE07A0079001202F3227E647D327C077BE07A0079001202F322759395
:200160001FC0F0C0E0C007C0D075F000D2F285F0927F32DFFED2F485F0927403121D3674DE
:20018000111201AB7403121D3674291201AB7403121D36743A1201AB74051201E3740C1210
:2001A000021BD0D0D007D0E0D0F022C0E0C0F0C0D0C00775F000C2F2D2F4C2F3C2F085F0B7
:2001C000927F083392F185F092D2F085F092C2F085F092DFEED2F285F092D007D0D0D0F0F8
:2001E000D0E022C0E0C0F0C0D0C00775F000C2F2D2F4D2F3C2F085F0927F083392F185F077
:2002000092D2F085F092C2F085F092DFEED2F285F092D007D0D0D0F0D0E022C0E0C0D0C039
:20022000F0C083C082C007B40C43742A1201AB74001201E31201E31201E3747F1201E37470
:200240002B1201AB74001201E31201E31201E3749F1201E3742C1201ABE47FA075F08012FE
:2002600001E31201E3D5F0F7DFF20202E6C3942075F040A49003BB2582F582E58335F0F57F
:2002800083742A1201AB74001201E3ED1201E374001201E3ED240F1201E3742B1201AB74E1
:2002A000001201E3EE1201E374001201E3EE241F1201E3742C1201AB7F4075F008E493339F
:2002C0004012C0E0EA1201E3E91201E3D0E0D5F0EE0202E3C0E0EC1201E3EB1201E3D0E010
:2002E000D5F0DCA3DFD4D007D082D083D0F0D0D0D0E022C0E0C0F0C0D0C005C0E0C412033B
:2003000013ED2410FDD0E0120313D005D0D0D0F0D0E022C0E0C0F0C0D0540F12209F1202A5
:200320001BD0D0D0F0D0E022C0E0C0F0C0D0C083C082C005E493B4000DD005D082D083D0C4
:20034000D0D0F0D0E02212021BED2410FDA3020334C0E0C0F0C0D0C007C000742A1201AB4F
:2003600074001201E3ED1201E374001201E3EB1201E3742B1201AB74001201E3EE1201E33A
:2003800074001201E3EC1201E3742C1201ABEBC39D04F5F0ECC39E04A4AFF0F8EA1201E313
:2003A000E91201E3E8C39401F8EF9400FF4870ECD000D007D0D0D0F0D0E022000000000027
:2003C00000000000000000000000000000000000000000000000000000000000000000001D
:2003E0000000000000000000000000000000000000000000000000000000000000000003FA
:20040000F003F001E001E001E001E001E001E001E001E000C000C000C000C000C000000031
:2004200000000000C001E003F003F001E000C0000000000000000000000000000000003E56
:200440007C3E7C3C3C1C381C381C3818181818181800000000000000000000000000000062
:2004600000000000000000000000000000000000000000000000000000000000000000007C
:20048000000F3C0F3C0F3C0F3C0F3C0F3C3FFE3FFE3FFE3FFE0F3C0F3C0F3C0F3C3FFE3FFE
:2004A000FE3FFE0F3C0F3C0F3C0F3C0F3C0F3C00000000000000000000000000000000003F
:2004C000C007F00FFC1FFE3CDE38CE38C038C038C03CC01EC00FE007F803FC00DE00CE00C2
:2004E000C600C600C638CE3CDE1FFC0FFC07F000C000C000C000C000000000000000001F4E
:20050000003F807BC071C060C271C67BCE3F9E1F3C007800F001E003C007800F001E003CDA
:200520000078F871FC63DE438E0306038E03DE01FC00F80000000000000000000000000755
:20054000F00FF81E381C1C1C1C1C1C1C1C1C380E780FF007E00F860FCE1FCE3DFC38FC38AA
:20056000783870387838783CFC1FCE0FC607060000000000000000000000000000000003F1
:20058000C003C003C003C003C003C003C0078007800F000E000000000000000000000000DE
:2005A00000000000000000000000000000000000000000000000000000000000000000003B
:2005C0001C003C007800F001E003C003C0078007800F000F000F000E000E000F000F000F70
:2005E00000078007C003E001F000F00078003C001C000C0000000000000000000000000EFF
:20060000000F00078003C001E000F000F000780078003C003C003C001C001C003C003C006C
:200620003C007800F801F003E003C007800F000E000C0000000000000000000000000000C7
:200640000000000000381C3C3C3E7C1FF80FF007E07FFE7FFE7FFE07E00FF01FF83E7C3CAD
:200660003C381C0000000000000000000000000000000000000000000000000000000000EA
:2006800000000000000000000001E001E001E001E01FFE1FFE1FFE1FFE01E001E001E001BE
:2006A000E0000000000000000000000000000000000000000000000000000000000000005A
:2006C00000000000000000000000000000000000000000000000000000000000000000001A
:2006E00000000001C003E003E003E003E001E001C003C0038007800F000C00000000000023
:2007000000000000000000000000000000000000001FFE1FFE1FFE1FFE0000000000000065
:200720000000000000000000000000000000000000000000000000000000000000000000B9
:20074000000000000000000000000000000000000000000000000000000000000000000099
:2007600000000007800FC00FC00FC00FC0078000000000000000000000000000000000002F
:200780000E000E001E001E003E003C007C007800F800F001F001E003E003C007C007800FD6
:2007A000800F001F001E003E003C007C007800F800F000F000E000E000C0000000000003A4
:2007C000F00FFC1FFC3E1E3C0E3C0E3C0E3C1E3C3E3C7E3CFE3DEE3FCE3F8E3F0E3E0E3C27
:2007E0000E3C0E3C0E3E1E3FFE1FFC0FFC03F00000000000000000000000000000000000A5
:2008000030007000F001F003F007F00FF000F000F000F000F000F000F000F000F000F000FE
:20082000F000F000F000F000F000F000F000F0000000000000000000000000000000000731
:20084000F01FFC1FFC3E3E3C1E3C0E000E000E001E003E007C01FC03F00FE01F801E003C86
:20086000003C003C003C003FFE3FFE3FFE3FFE0000000000000000000000000000000007C9
:20088000F01FFC1FFC3C1E380E000E000E001E003C03FC03F803F803FC003C001E000E00C0
:2008A0000E000E380E3C1E3FFC1FFC0FF803E000000000000000000000000000000000003C
:2008C0003C007C007C00FC01FC01FC03FC03BC07BC0F3C0E3C1E3C3C3C383C703C7FFE7FEA
:2008E000FE7FFE003C003C003C003C003C003C000000000000000000000000000000003FD6
:20090000FE3FFE3C003C003C003C003C003FF03FFC3FFC381E000E000E000E000E000E002F
:200920000E000E380E3C1E3E3E1FFC0FF803E0000000000000000000000000000000000377
:20094000F80FFC1FFE1E0E3C063C003C003C003C003FF03FFC3FFC3E1E3C0E3C0E3C0E3CFE
:200960000E3C0E3C0E3C0E1E1E1FFC0FFC03F0000000000000000000000000000000003FF7
:20098000FE3FFE3FFE001E001E003C003C003C00780078007000F000F001E001E003C00327
:2009A000C00780078007000F000E001E001E00000000000000000000000000000000000702
:2009C000F01FFC1E3C3C1E380E380E380E3C1E1E3C0FF807F00FF81E3C3C1E380E380E3855
:2009E0000E380E380E3C1E3E3E1FFC0FF803E000000000000000000000000000000000077B
:200A0000F01FFC1E3C3C1E3C0E3C0E3C0E3C0E3C0E3C0E3E1E1FFE1FFE0FFE03EE000E00B9
:200A20000E000E001E003E0FFC0FFC0FF00F8000000000000000000000000000000000009A
:200A4000000000000000000000018003C007E007E003C0018000000000000000000000013F
:200A60008003C007E007E003C0018000000000000000000000000000000000000000000021
:200A800000000000000000000001C003E003E003E003E001C0000000000000000000000147
:200AA000C003E003E003E003E003E001E001E001C003C00F800F0000000000000000000023
:200AC00006000E001E003E007E00FC01F803F007E00FC01F803F003F001F800FC007E00315
:200AE000F001F800FC007E003E001E000E0006000200000000000000000000000000000021
:200B00000000000000000000003FFE3FFE3FFE3FFE000000000000000000003FFE3FFE3F28
:200B2000FE3FFE00000000000000000000000000000000000000000000000000000000304A
:200B40000038003C003E001F000F8007C003E001F000F8007C003E003E007C00F801F00342
:200B6000E007C00F801F003E003C0038003000200000000000000000000000000000000717
:200B8000F01FFC3FFE3C1E380E000E000E001E003E007C00F801F003E003C003C000000027
:200BA000000000018003C007E007E003C001800000000000000000000000000000000007D8
:200BC000F00FFC1FFE3E0E3C063C7E3CFE3CEE3CC63CC63CC63CC63CC63CC63CC63CEE3CDD
:200BE000FE3C7C3C003E003FFC1FFC1FFC07FC00000000000000000000000000000000034E
:200C0000E007F00FF81F3C3E1E3C0E3C0E3C0E3C0E3C0E3C0E3C0E3C0E3FFE3FFE3FFE3CFC
:200C20000E3C0E3C0E3C0E3C0E3C0E3C0E3C0E000000000000000000000000000000003F61
:200C4000F83FFC3FFE3C1E3C0E3C0E3C0E3C0E3C1E3FFC3FF83FF83FFC3C1E3C0E3C0E3C3A
:200C60000E3C0E3C0E3C1E3FFE3FFE3FFC3FF8000000000000000000000000000000000785
:200C8000F81FFC1FFE3E1E3C0E3C003C003C003C003C003C003C003C003C003C003C003CAE
:200CA000003C003C0E3E1E1FFE1FFC0FFC03F0000000000000000000000000000000003FDD
:200CC000F03FFC3FFC3C3E3C1E3C0E3C0E3C0E3C0E3C0E3C0E3C0E3C0E3C0E3C0E3C0E3C70
:200CE0000E3C0E3C1E3C3E3FFE3FFC3FF83FF0000000000000000000000000000000003FAB
:200D0000FE3FFE3FFE3C003C003C003C003C003C003FF03FF03FF03FF03C003C003C003C47
:200D2000003C003C003C003FFE3FFE3FFE3FFE000000000000000000000000000000003FCC
:200D4000FE3FFE3FFE3C003C003C003C003C003C003C003C003FF03FF03FF03FF03C003C07
:200D6000003C003C003C003C003C003C003C000000000000000000000000000000000007C8
:200D8000F80FFC1FFE3E1E3C0E3C003C003C003C003C003C003C003C003C003C3E3C3E3C41
:200DA0003E3C0E3C0E3E1E3FFE1FFC0FFC07F0000000000000000000000000000000003C6F
:200DC0000E3C0E3C0E3C0E3C0E3C0E3C0E3C0E3C0E3FFE3FFE3FFE3FFE3C0E3C0E3C0E3CA7
:200DE0000E3C0E3C0E3C0E3C0E3C0E3C0E3C0E0000000000000000000000000000000003DC
:200E0000F803F803F800E000E000E000E000E000E000E000E000E000E000E000E000E00084
:200E2000E000E000E000E003F803F803F803F8000000000000000000000000000000000046
:200E40000E000E000E000E000E000E000E000E000E000E000E000E000E000E000E000E00B2
:200E60000E3C0E3C0E3E1E3FFE1FFC1FFC07F0000000000000000000000000000000003CCE
:200E8000063C0E3C1E3C3E3C7C3CF83DF03FE03FC03F803F003E003F003F803FC03FE03D62
:200EA000F03CF83C7C3C3E3C1E3C0E3C063C02000000000000000000000000000000003C7C
:200EC000003C003C003C003C003C003C003C003C003C003C003C003C003C003C003C003C52
:200EE000003C003C003C003FFE3FFE3FFE3FFE0000000000000000000000000000000078D2
:200F00000E780E7C1E7C1E7E3E7E3E7F7E7F7E7F7E7FFE7BEE7BEE79CE79CE788E788E7839
:200F20000E780E780E780E780E780E780E780E000000000000000000000000000000003CBD
:200F40000E3C0E3E0E3E0E3F0E3F0E3F0E3F8E3F8E3FCE3FCE3DEE3DEE3CFE3CFE3C7E3C46
:200F60007E3C7E3C3E3C3E3C1E3C1E3C0E3C0E000000000000000000000000000000000FEE
:200F8000F81FFC3FFE3E1E3C0E3C0E3C0E3C0E3C0E3C0E3C0E3C0E3C0E3C0E3C0E3C0E3CF1
:200FA0000E3C0E3C0E3E1E3FFE3FFE1FFC0FF8000000000000000000000000000000003F58
:200FC000F83FFC3FFE3C1E3C0E3C0E3C0E3C0E3C0E3C0E3C1E3FFE3FFE3FFC3FF83C003CCD
:200FE000003C003C003C003C003C003C003C00000000000000000000000000000000000746
:20100000F81FFC1FFE3E1E3C0E3C0E3C0E3C0E3C0E3C0E3C0E3C0E3C0E3C0E3C0E3C0E3C90
:201020000E3CEE3DFE3CFE3FFE1FFE1FFC07F8007E003E001E000600000000000000003F70
:20104000F83FFC3FFE3C1E3C0E3C0E3C0E3C0E3C0E3C1E3C3C3FFC3FF83FFC3FFC3C1E3C04
:201060000E3C0E3C0E3C0E3C0E3C0E3C0E3C0E000000000000000000000000000000000F4D
:20108000F81FFC3FFE3E1E3C0E3C003E003F001F800FC007E003F001F800FC007E003E00A8
:2010A0001E000E3C0E3C1E3FFE3FFE1FFC0FF8000000000000000000000000000000001FA5
:2010C000FE1FFE1FFE01E001E001E001E001E001E001E001E001E001E001E001E001E0016A
:2010E000E001E001E001E001E001E001E001E0000000000000000000000000000000003CAD
:201100000E3C0E3C0E3C0E3C0E3C0E3C0E3C0E3C0E3C0E3C0E3C0E3C0E3C0E3C0E3C0E3C2F
:201120000E3C0E3C0E3E1E3FFE1FFC1FFC07F0000000000000000000000000000000003C0B
:201140000E3C0E3C0E3C0E3C0E3C0E3C0E3C0E3C0E3C0E3C0E3C0E3C0E3C0E3C0E1E1E0F2A
:201160003C0F3C07F807F803F001E000C000C000000000000000000000000000000000781E
:201180000E780E780E780E788E788E788E79CE79CE7BCE7BEE7BEE7FFE7FFE7F7E7F7E7E82
:2011A0003E7E3E7E3E7C1E7C1E7C1E780E780E000000000000000000000000000000003867
:2011C0000E3C1E1C1E1E3C0E3C0E380F78077007F007F003E003E003E007F007F007700F7A
:2011E000780F780E3C1E3C1C1C3C1E380E380E000000000000000000000000000000003CF2
:201200000E3C0E3C0E3C0E3C0E3C0E3C0E3C0E3C0E3E1E1F3E0FFC07F803F001E001E001F7
:20122000E001E001E001E001E001E001E001E0000000000000000000000000000000003F68
:20124000FE3FFE3FFE001E003E003C007C007800F000F001E001E003C003C007800F800F3D
:20126000001E001E003C003FFE3FFE3FFE3FFE0000000000000000000000000000000003FF
:20128000FC03FC03FC03C003C003C003C003C003C003C003C003C003C003C003C003C0036A
:2012A000C003C003C003C003C003C003C003FC03FC03FC03FC00000000000000000000E000
:2012C00000E000F0007000780038003C001C001E000E000F0007000780038003C001C001F5
:2012E000E000E000F0007000780038003C001C001E000E000E000600060002000000000F6F
:20130000F00FF00FF000F000F000F000F000F000F000F000F000F000F000F000F000F000AF
:20132000F000F000F000F000F000F000F00FF00FF00FF00FF0000000000000000000000021
:20134000C001E003F007F80FFC1F3E1E1E1C0E18060000000000000000000000000000000E
:2013600000000000000000000000000000000000000000000000000000000000000000006D
:2013800000000000000000000000000000000000000000000000000000000000000000004D
:2013A0000000000000000000000000FFFEFFFEFFFEFFFE0000000000000000000000000336
:2013C000E001E001F000F000F000780078003C001C00000000000000000000000000000033
:2013E0000000000000000000000000000000000000000000000000000000000000000000ED
:20140000000000000000000000000000000FF80FFC0FFE0FFE000E000E07FE1FFE1FFE3E07
:201420001E3C0E3C0E3E0E3FFE1FFE1FFE07FE000000000000000000000000000000003CF6
:20144000003C003C003C003C003C003C003FF03FFC3FFC3FFE3C1E3C0E3C0E3C0E3C0E3C84
:201460000E3C0E3C0E3C1E3FFE3FFC3FFC3FF000000000000000000000000000000000008E
:201480000000000000000000000000000007F01FFC1FFC3FFE3E1E3C0E3C003C003C003C4C
:2014A000003C003C0E3E1E3FFE1FFC1FFC07F00000000000000000000000000000000000E0
:2014C0000E000E000E000E000E000E000E07FE1FFE1FFE3FFE3E0E3C0E3C0E3C0E3C0E3C7E
:2014E0000E3C0E3C0E3E0E1FFE1FFE0FFE03FE0000000000000000000000000000000000B6
:201500000000000000000000000000000007F81FFC1FFE3E1E3C0E3E1E3FFE3FFC3FF83CA7
:20152000003C003C0E3E1E3FFE1FFC1FFC07F000000000000000000000000000000000015E
:20154000F803FC03FE03DE03CE03C003C003C003C03FFC3FFC3FFC3FFC03C003C003C0039D
:20156000C003C003C003C003C003C003C003C0000000000000000000000000000000000056
:201580000000000000000000000000000007FE1FFE1FFE3FFE3E0E3C0E3C0E3C0E3C0E3C1F
:2015A0000E3C0E3C0E3E0E3FFE1FFE1FFE07FE000E000E001E0FFE0FFC0FF8000000003C2C
:2015C000003C003C003C003C003C003C003FF03FFC3FFC3FFE3C1E3C0E3C0E3C0E3C0E3C03
:2015E0000E3C0E3C0E3C0E3C0E3C0E3C0E3C0E0000000000000000000000000000000000D7
:20160000C001E001E000C000000000000001E001E001E001E001E001E001E001E001E0019E
:20162000E001E001E001E001E001E001E001E00000000000000000000000000000000000A3
:201640001C003E003E001C000000000000001E001E001E001E001E001E001E001E001E00C8
:201660001E001E001E001E001E001E001E001E1C1E1E3E1FFE0FFC0FF803E0000000003C96
:20168000003C003C003C003C003C003C003C0E3C1E3C3E3C7C3CF83DF03FE03FC03F803F8F
:2016A000C03FE03DF03CF83C7C3C3E3C1E3C0E000000000000000000000000000000000311
:2016C000C003C003C003C003C003C003C003C003C003C003C003C003C003C003C003C003DA
:2016E000C003C003C003C003C003E001FE00FE00000000000000000000000000000000003E
:20170000000000000000000000000000003E3C7FFE7FFE7FFE7FFE79CE79CE79CE79CE79C6
:20172000CE79CE79CE79CE780E780E780E780E0000000000000000000000000000000000EE
:20174000000000000000000000000000003FF83FFC3FFC3FFE3C1E3C0E3C0E3C0E3C0E3CE1
:201760000E3C0E3C0E3C0E3C0E3C0E3C0E3C0E000000000000000000000000000000000055
:201780000000000000000000000000000003F00FFC1FFC1FFE3E1E3C0E3C0E3C0E3C0E3C53
:2017A0000E3C0E3C0E3E1E3FFE1FFC1FFC07F00000000000000000000000000000000000C1
:2017C000000000000000000000000000003FF03FFC3FFC3FFE3C1E3C0E3C0E3C0E3C0E3C69
:2017E0000E3C0E3C0E3C1E3FFE3FFC3FFC3FF03C003C003C003C003C003C000000000000A3
:201800000000000000000000000000000007FE1FFE1FFE3FFE3E0E3C0E3C0E3C0E3C0E3C9C
:201820000E3C0E3C0E3E0E3FFE1FFE1FFE07FE000E000E000E000E000E000E0000000000EA
:20184000000000000000000000000000003DF83FFC3FFE3FFE3C1E3C0E3C003C003C003C0A
:20186000003C003C003C003C003C003C003C000000000000000000000000000000000000C4
:20188000000000000000000000000000000FF81FFC1FFE3E1E3C0E3E0E1F800FE007F80189
:2018A000FC00FE3C3E3C0E3E1E1FFE1FFC0FF80000000000000000000000000000000000CF
:2018C0000003C003C003C003C003C003C03FFC3FFC3FFC3FFC03C003C003C003C003C003B8
:2018E000C003C003CE03CE03FE01FE01FC007800000000000000000000000000000000004E
:20190000000000000000000000000000003C0E3C0E3C0E3C0E3C0E3C0E3C0E3C0E3C0E3CF1
:201920000E3C0E3C0E3E0E3FFE1FFE1FFE07FE00000000000000000000000000000000003D
:20194000000000000000000000000000003C0E3C0E3C0E3C0E3C0E3C0E3C0E3C0E3C0E3CB1
:201960000E3E1E1F3E0FFC07F803F001E000C0000000000000000000000000000000000002
:2019800000000000000000000000000000780E780E780E780E79CE79CE79CE79CE79CE7953
:2019A000CE7BEE7FFE3FFE1F7C1E3C0C18080800000000000000000000000000000000000D
:2019C00000000000000000000000000000700E780E7C1E3E3E1F7C0FFC0FF807F003E0075F
:2019E000F00FF81FFC1F7C3E3E7C1E780E700E000000000000000000000000000000000020
:201A0000000000000000000000000000003C0E3C0E3C0E3C0E3C0E3C0E3C0E3C0E3C0E3CF0
:201A20000E3C0E3C0E3E0E3FFE1FFE1FFE07FE000E000E001E003E0FFC0FF80000000000B2
:201A4000000000000000000000000000003FFE3FFE3FFE3FFE003E007C00F801F003E00705
:201A6000C00F801F003E003FFE3FFE3FFE3FFE0000000000000000000000000000000001C5
:201A8000F803F007C0078007000780078003C003C0038007800F003F003F000F0007800342
:201AA0008003C003C0078007800700078007C003F001F800000000000000000000000003CE
:201AC000E003E003E003E003E003E003E003E003E003E003E003E003E003E003E003E003D6
:201AE000E003E003E003E003E003E003E003E003E003E003E003E003E0000000000000075B
:201B0000E003F000F800780078007800F000F000F000F00078007C003E003E007C0078006E
:201B2000F000F000F000F000780078007800F803F007E000000000000000000000000000AB
:201B400000070E1F9E1FFE3FFC3CFC3870000000000000000000000000000000000000007B
:201B600000000000000000000000000000000000000000000000000000000000000000075E
:201B8000E01FF81FF83E7C3C3C3C3C3C3C3E7C1FF81FF807E0000000000000000000000046
:201BA000000000000000000000000000000000000000000000000000000000C08F758F04CE
:201BC000C0B275B20175C8FF75C9FF75B20075C900D0B2D08F22C08F758F04C0B275B20199
:201BE00043A00F43A10F75B20053A1F0D0B2D08F22C08F758F04C0B275B20075B1FFD0B25B
:201C0000D08F22C08F758F04C0B275B200D287D28375B203D283D28775B2004386085386FC
:201C20007FD0B2D08F22C08F758F04C0B275B200D283D287438680121D27C287121D27C284
:201C400083121D27D0B2D08F22C08F758F04C0B275B200438680C287121D27D283121D2725
:201C6000D287121D2753867FD0B2D08F22C0E0C0F0C08F758F04C0B275B20075F0084386E4
:201C800080339287121D27D283121D27C283D5F0F053867F121D27D283A287121D27C283B6
:201CA000D0B2D08FD0F0D0E022C08F758F04C0B275B200C0F0C0D075F00853867F121D2766
:201CC000D283A28733121D27C283D5F0F0438680C287121D27D283121D27C28353867FD003
:201CE000D0D0F0D0B2D08F22C08F758F04C0B275B200C0F0C0D075F00853867F121D27D234
:201D000083A28733121D27C283D5F0F0438680D287121D27D283121D27C28353867FD0D0B4
:201D2000D0F0D0B2D08F22C0E0C0D075E01AD5E0FDD0D0D0E022C0E0C0D0C0F075F0321294
:201D40001D4FD5F0FAD5E0F4D0F0D0D0D0E022C0E0C0D075E064121D27D5E0FAD0D0D0E03F
:201D600022C0E0C0D0C0F0121C0375F0FD121F057410121EFED5E0FA7430121EBD121EFE78
:201D80007430121EBD121EFE7430121EBD121EFE7420121EBD121EFE7428121EA7121EFE75
:201DA000740F121EA7121EFE7401121EA7121EFE7406121EA7121EFED0F0D0D0D0E022C0B0
:201DC000E0C0D0B480005046B42000503CB40C077401121EA7803AB40107740F121EA78006
:201DE00030B40207740E121EA78026B40307740C121EA7801CB40D077402121EA78012B4EB
:201E00000A0F74C0121EA78008121E6D8003121EA7D0D0D0E022C0E0C0D0540F2430B43AD8
:201E20000040022407121E6DD0D0D0E022C0E0C0D0C4121E16C4121E16D0D0D0E022C0E0D0
:201E4000C0D0E583121E2DE582121E2DD0D0D0E022C0E0C0D0C083C082E4936007121DBF76
:201E6000A3021E59D082D083D0D0D0E022C0E0C0D0121E7DC4121E7DD0D0D0E022C0E0C00F
:201E8000D0C0F0121F1ED2F0C2F154F0030353F0C342F0121F05D2F1121F05C2F1121F0564
:201EA000D0F0D0D0D0E022C0E0C0D0121EBD121EFEC4121EBD121EFED0D0D0E022C0E0C0F4
:201EC000D0C0F0121F1EC2F0C2F154F0030353F0C342F0121F05D2F1121F05C2F1121F0534
:201EE000D0F0D0D0D0E0227440121EA7740093121E6D20E703A380F47480121EA722121D44
:201F00004F121D4F22C0E0C0D0121C267440121C6DE5F0121C6D121C49D0D0D0E022C0E006
:201F2000C0D0121C267441121C6D121CE8121C49F5F0D0D0D0E022C0F0121F1EC2F6121FA1
:201F400005D0F022C0F0121F1ED2F6121F05D0F022C0F0121F1EC2F7121F05D0F022C0F03B
:201F6000121F1ED2F7121F05D0F02208200800C0E0C08F758F04C0B2C0BF75BF0075B202BC
:201F80005390FD4390015391FE43910275B2005391FE43910275985075BE9B75BD11D0BFF9
:201FA000D0B2D08FD0E022F5993099FDC29922C0E0C0D0540F12209F121FA7122008D0D087
:201FC000D0E022C0E0C0D0C0E0C4121FAFD0E0121FAFD0D0D0E022C0E0C0D0E583121FC32D
:201FE000E582121FC3D0D0D0E022C0E0C0D0C082C083E4936009121FA7122008A380F3D087
:2020000083D082D0D0D0E022C0E0C0D0109805D0D0D0E022E599B413F61098F380FB309811
:20202000FDC298E5992212201E1220921220A9400EC4F812201E1220921220A94001482216
:20204000785012201E547F122092B40D02F622B40813B850077407121FA780E618901F6B2D
:20206000121FEA80DD12208440EBB86E0280E6F60880E478507950E6B4200508B870F8227D
:20208000F70980F7B420004007B47F005002C322D322B47B005007B461004002942022B4E8
:2020A0000A0040022407243022C394304010B40A00400A94074007B41000B34001C322E6EF
:2020C0001220A9221220BF4009C4F9081220BF400149221220C4400AF583081220C440026F
:2020E000F58222C08F758F0475D10075CAB075CE0A75CC8075D10675CC01D08F22C08F75DA
:202100008F0475D10675CB2075D1000000E5CB20E0FB75D102E5CB85CAF0D08F22C08F7513
:202120008F0475D10675CB1075D1000000E5CB20E0FB75D102E5CB85CAF0D08F22C08F7503
:202140008F04C0D175D10075CA9075CE0075CC4075D10675CD01D0D1D08F22C08F758F047A
:20216000C0D175D106F5D275D1000000E5CB20E0FB75D102E5CB85CAF0D0D1D08F22C08F22
:20218000758F0475D10075CAC075CC8075D10675CC01D08F22C08F758F0475D10075CA80C6
:2021A00075CC8075D10675CC01D08F22C08F758F04C0D175D106F5CB75D1000000E5CB2045
:2021C000E0FB75D102E5CB85CAF0D0D1D08F22C0E0C0D0C0F0C070C071C072C073C074C031
:2021E00075C076C07775570075560075550075540075530075520075510075500075F04014
:20220000E56833F568E56933F569E56A33F56AE56B33F56BE56C33F56CE56D33F56DE56E1F
:2022200033F56EE56F33F56FE55033F550E55133F551E55233F552E55333F553E55433F5FC
:2022400054E55533F555E55633F556E55733F557C3E5509560F570E5519561F571E552954F
:2022600062F572E5539563F573E5549564F574E5559565F575E5569566F576E5579567F5F6
:20228000774018857757857656857555857454857353857252857151857050B3E55833F5F7
:2022A00058E55933F559E55A33F55AE55B33F55BE55C33F55CE55D33F55DE55E33F55EE549
:2022C0005F33F55FD5F0030222CD022200D077D076D075D074D073D072D071D070D0F0D08F
:2022E000D0D0E022C0E0C0D0C070C071C072C073C074C075C076C077C078C079C07AC07B8A
:20230000C07C75700075710075720075730075740075750075760075770075780075790062
:20232000757A00757B00757C20EB13FBEA13FAE913F9E813F8502CEC2574F574ED3575F5DF
:2023400075EE3576F576EF3577F577E5703578F578E5713579F579E572357AF57AE573351A
:202360007BF57BC3EC33FCED33FDEE33FEEF33FFE57033F570E57133F571E57233F572E585
:202380007333F573D57CA2A874A975AA76AB77AC78AD79AE7AAF7BD07CD07BD07AD079D02A
:2023A00078D077D076D075D074D073D072D071D070D0D0D0E022C0E0C0D0C070C071C07254
:2023C000C073C074C075C076757000757100757200757300757400757500757610E913F9CE
:2023E000E813F85016EA2572F572EB3573F573E5703574F574E5713575F575C3EA33FAEB0B
:2024000033FBE57033F570E57133F571D576CEA872A973AA74AB75D076D075D074D073D043
:2024200072D071D070D0D0D0E022C0E0C0D0C070C071C072C073C074C075C076C077C07833
:20244000C079C07AC07BC07C7570007571007572007573007574007575007576007577004E
:20246000757800757900757A00757B00757C20E833F8E933F9EA33FAEB33FBE57033F5704C
:20248000E57133F571E57233F572E57333F573C3E5709CF574E5719DF575E5729EF576E5AA
:2024A000739FF577400C857470857571857672857773B3E57833F578E57933F579E57A3361
:2024C000F57AE57B33F57BD57CA5AC78AD79AE7AAF7BA870A971AA72AB73D07CD07BD07AAB
:2024E000D079D078D077D076D075D074D073D072D071D070D0D0D0E022C0E0C0D0C070C09D
:2025000071C072C073C074C075C076757000757100757200757300757400757500757610DE
:20252000E833F8E933F9E57033F570E57133F571C3E5709AF572E5719BF573400685727078
:20254000857371B3E57433F574E57533F575D576CFAA74AB75A870A971D076D075D074D04A
:2025600073D072D071D070D0D0D0E022C0E0C0D0E82CF8E93DF9EA3EFAEB3FFB7400340069
:20258000FCD0D0D0E022C0E0C0D0E82AF8E93BF974003400FAD0D0D0E022C0E0C0D0C3E887
:2025A0009CF8E99DF9EA9EFAEB9FFB74009400FCD0D0D0E022C0E0C0D0C3E89AF8E99BF9A1
:2025C00074009400FAD0D0D0E022C0E0C0D0C007C006C005C0047F007E987D967C80122467
:2025E0002AECC47F007E0F7D427C4012242A4CC0E07F007E017D867CA012242AECC47F0082
:202600007E007D277C1012242A4CC0E07F007E007D037CE812242AECC47F007E007D007CD9
:202620006412242A4CC0E07F007E007D007C0A12242AECC448F8D0E0F9D0E0FAD0E0FBD0CC
:2026400004D005D006D007D0D0D0E022C0E0C0D0C077C078C0797579057B007A0A1224F989
:20266000E8C0E0EAF8EBF9D579EFD0E0FAD0E0C4F579D0E02579F9D0E0C4F579D0E02579CC
:20268000F8D079D078D077D0D0D0E022C0D0C0F075F00A84C425F0D0F0D0D022C0E0C0D03A
:2026A000C0F0C007C006C005C004C070C071C072C073C074C075C076C077887089718A72CA
:2026C0008B73E570540FF574757500757600757700E57054F0C475F00AA42574F574E57152
:2026E000540F75F064A42574F574E57535F0F575E57154F0C475F00AA475F064A42574F5B3
:2027000074E57535F0F575E572540F7900F87B277A101223B6E57428F574E57539F575E54E
:20272000763AF576E5773BF577E57254F0C475F00AA47900F87B277A101223B6E57428F50B
:2027400074E57539F575E5763AF576E5773BF577E573540F7B007A007900F87F007E0F7D5B
:20276000427C401222E4E57428F574E57539F575E5763AF576E5773BF577E57354F0C47B7E
:20278000007A007900F87F007E987D967C801222E4E57428F574E57539F575E5763AF576AB
:2027A000E5773BF577A874A975AA76AB77D077D076D075D074D073D072D071D070D004D0DA
:2027C00005D006D007D0F0D0D0D0E022C0F0C0E0C0D0E8540FC0E0E8C4540F75F00AA4D058
:2027E000F025F0C0E0E954F0C4C0E0E9540F75F064A4A9F0F8D0E075F00AA475F064A42801
:20280000F8E935F0F9D0E028F8740039F9D0D0D0E0D0F022C0D0C0F0C070F57053700F5416
:20282000F0C475F00AA42570D070D0F0D0D022C083C082C0D0C08FC0B2C0BF758F0475BFE9
:202840000143B70843B70453B6F743B60490F000A3E582458370F943B602E5B620E1FB30FD
:20286000E0F5E5B7540F44A075BB98F5B753B7FB43B702E5B720E0FB53B7F743B610D0BFFB
:13288000D0B2D08FD0D0D082D08322438F0122538FFE2206
:00000001FF
