:2000000075817FC08F758F04C0B275B2007586FF7591FF75B1FF75C9FFD0B2D08F121BE428
:20002000121F60120187121D8A755000755100755200755300755400755500755600755798
:20004000007558007559C8755A00755B001200C0E559120167E553120157E55380EF1201B8
:2000600046F556120146F557120146F558120146F559120146F55A120146F55B22E556C38C
:200080009550601A5006D292F4048002C292FDD293121D78C293121D78DDF4855650E5573C
:2000A000C39551601A5006D294F4048002C294FED295121D78C295121D78DEF48557512266
:2000C000E558C39552601A5006D2B6F4048002C2B6FCD2B7121D78C2B7121D78DCF48558F6
:2000E00052E559C39553601A5006D2B0F4048002C2B0FBD2B1121D78C2B1121D78DBF485F4
:20010000595322E55AC39554601A5006D2CCF4048002C2CCFFD2CD121D78C2CD121D78DF56
:20012000F4855A54E55BC39555601A5006D2CEF4048002C2CEFAD2CF121D78C2CF121D78B7
:20014000DAF4855B5522227E007D007C077BE07A00790012031C227E007D327C077BE07AB4
:2001600000790012031C227E647D007C077BE07A00790012031C227E647D327C077BE07A47
:2001800000790012031C2275931FC0F0C0E0C007C0D075F000D2F285F0927F32DFFED2F441
:2001A00085F0927403121D5F74111201D47403121D5F74291201D47403121D5F743A120178
:2001C000D4740512020C740C120244D0D0D007D0E0D0F022C0E0C0F0C0D0C00775F000C203
:2001E000F2D2F4C2F3C2F085F0927F083392F185F092D2F085F092C2F085F092DFEED2F282
:2002000085F092D007D0D0D0F0D0E022C0E0C0F0C0D0C00775F000C2F2D2F4D2F3C2F0854C
:20022000F0927F083392F185F092D2F085F092C2F085F092DFEED2F285F092D007D0D0D097
:20024000F0D0E022C0E0C0D0C0F0C083C082C007B40C43742A1201D4740012020C12020C74
:2002600012020C747F12020C742B1201D4740012020C12020C12020C749F12020C742C120C
:2002800001D4E47FA075F08012020C12020CD5F0F7DFF202030FC3942075F040A49003E489
:2002A0002582F582E58335F0F583742A1201D4740012020CED12020C740012020CED240F41
:2002C00012020C742B1201D4740012020CEE12020C740012020CEE241F12020C742C12013E
:2002E000D47F4075F008E493334012C0E0EA12020CE912020CD0E0D5F0EE02030CC0E0EC4F
:2003000012020CEB12020CD0E0D5F0DCA3DFD4D007D082D083D0F0D0D0D0E022C0E0C0F00D
:20032000C0D0C005C0E0C412033CED2410FDD0E012033CD005D0D0D0F0D0E022C0E0C0F03D
:20034000C0D0540F1220C8120244D0D0D0F0D0E022C0E0C0F0C0D0C083C082C005E493B4D1
:20036000000DD005D082D083D0D0D0F0D0E022120244ED2410FDA302035DC0E0C0F0C0D069
:20038000C007C000742A1201D4740012020CED12020C740012020CEB12020C742B1201D48B
:2003A000740012020CEE12020C740012020CEC12020C742C1201D4EBC39D04F5F0ECC39EF3
:2003C00004A4AFF0F8EA12020CE912020CE8C39401F8EF9400FF4870ECD000D007D0D0D056
:2003E000F0D0E022000000000000000000000000000000000000000000000000000000003B
:200400000000000000000000000000000000000000000000000000000000000000000000DC
:20042000000000000000000003F003F001E001E001E001E001E001E001E001E000C000C04E
:2004400000C000C000C000000000000000C001E003F003F001E000C0000000000000000034
:2004600000000000000000003E7C3E7C3C3C1C381C381C3818181818181800000000000004
:2004800000000000000000000000000000000000000000000000000000000000000000005C
:2004A000000000000000000000000F3C0F3C0F3C0F3C0F3C0F3C3FFE3FFE3FFE3FFE0F3C3B
:2004C0000F3C0F3C0F3C3FFE3FFE3FFE0F3C0F3C0F3C0F3C0F3C0F3C0000000000000000C2
:2004E000000000000000000000C007F00FFC1FFE3CDE38CE38C038C038C03CC01EC00FE04C
:2005000007F803FC00DE00CE00C600C600C638CE3CDE1FFC0FFC07F000C000C000C000C0A2
:2005200000000000000000001F003F807BC071C060C271C67BCE3F9E1F3C007800F001E04E
:2005400003C007800F001E003C0078F871FC63DE438E0306038E03DE01FC00F80000000089
:20056000000000000000000007F00FF81E381C1C1C1C1C1C1C1C1C380E780FF007E00F86F2
:200580000FCE1FCE3DFC38FC38783870387838783CFC1FCE0FC60706000000000000000065
:2005A000000000000000000003C003C003C003C003C003C003C0078007800F000E000000BB
:2005C00000000000000000000000000000000000000000000000000000000000000000001B
:2005E0000000000000000000001C003C007800F001E003C003C0078007800F000F000F0099
:200600000E000E000F000F000F00078007C003E001F000F00078003C001C000C00000000A3
:2006200000000000000000000E000F00078003C001E000F000F000780078003C003C003CEE
:20064000001C001C003C003C003C007800F801F003E003C007800F000E000C0000000000F7
:200660000000000000000000000000000000381C3C3C3E7C1FF80FF007E07FFE7FFE7FFE80
:2006800007E00FF01FF83E7C3C3C381C0000000000000000000000000000000000000000D7
:2006A00000000000000000000000000000000000000001E001E001E001E01FFE1FFE1FFE5F
:2006C0001FFE01E001E001E001E00000000000000000000000000000000000000000000079
:2006E0000000000000000000000000000000000000000000000000000000000000000000FA
:2007000000000000000000000000000001C003E003E003E003E001E001C003C0038007801D
:200720000F000C00000000000000000000000000000000000000000000001FFE1FFE1FFE47
:200740001FFE0000000000000000000000000000000000000000000000000000000000007C
:20076000000000000000000000000000000000000000000000000000000000000000000079
:2007800000000000000000000000000007800FC00FC00FC00FC0078000000000000000000F
:2007A0000000000000000000000E000E001E001E003E003C007C007800F800F001F001E0B9
:2007C00003E003C007C007800F800F001F001E003E003C007C007800F800F000F000E00024
:2007E000E000C0000000000003F00FFC1FFC3E1E3C0E3C0E3C0E3C1E3C3E3C7E3CFE3DEE13
:200800003FCE3F8E3F0E3E0E3C0E3C0E3C0E3E1E3FFE1FFC0FFC03F00000000000000000D5
:2008200000000000000000000030007000F001F003F007F00FF000F000F000F000F000F09E
:2008400000F000F000F000F000F000F000F000F000F000F000F000F0000000000000000058
:20086000000000000000000007F01FFC1FFC3E3E3C1E3C0E000E000E001E003E007C01FC3A
:2008800003F00FE01F801E003C003C003C003C003FFE3FFE3FFE3FFE0000000000000000D5
:2008A000000000000000000007F01FFC1FFC3C1E380E000E000E001E003C03FC03F803F800
:2008C00003FC003C001E000E000E000E380E3C1E3FFC1FFC0FF803E00000000000000000B5
:2008E0000000000000000000003C007C007C00FC01FC01FC03FC03BC07BC0F3C0E3C1E3C5E
:200900003C3C383C703C7FFE7FFE7FFE003C003C003C003C003C003C000000000000000060
:2009200000000000000000003FFE3FFE3C003C003C003C003C003FF03FFC3FFC381E000E08
:20094000000E000E000E000E000E000E380E3C1E3E3E1FFC0FF803E0000000000000000022
:20096000000000000000000003F80FFC1FFE1E0E3C063C003C003C003C003FF03FFC3FFC51
:200980003E1E3C0E3C0E3C0E3C0E3C0E3C0E3C0E1E1E1FFC0FFC03F00000000000000000A0
:2009A00000000000000000003FFE3FFE3FFE001E001E003C003C003C00780078007000F040
:2009C00000F001E001E003C003C00780078007000F000E001E001E00000000000000000071
:2009E000000000000000000007F01FFC1E3C3C1E380E380E380E3C1E1E3C0FF807F00FF8A6
:200A00001E3C3C1E380E380E380E380E380E3C1E3E3E1FFC0FF803E00000000000000000E9
:200A2000000000000000000007F01FFC1E3C3C1E3C0E3C0E3C0E3C0E3C0E3C0E3E1E1FFEBB
:200A40001FFE0FFE03EE000E000E000E001E003E0FFC0FFC0FF00F80000000000000000051
:200A6000000000000000000000000000000000000000018003C007E007E003C00180000020
:200A80000000000000000000018003C007E007E003C0018000000000000000000000000000
:200AA00000000000000000000000000000000000000001C003E003E003E003E001C0000028
:200AC000000000000000000001C003E003E003E003E003E001E001E001C003C00F800F0002
:200AE00000000000000000000006000E001E003E007E00FC01F803F007E00FC01F803F008C
:200B00003F001F800FC007E003F001F800FC007E003E001E000E0006000200000000000069
:200B20000000000000000000000000000000000000003FFE3FFE3FFE3FFE000000000000C1
:200B4000000000003FFE3FFE3FFE3FFE0000000000000000000000000000000000000000A1
:200B60000000000000000000300038003C003E001F000F8007C003E001F000F8007C003E98
:200B8000003E007C00F801F003E007C00F801F003E003C0038003000200000000000000058
:200BA000000000000000000007F01FFC3FFE3C1E380E000E000E001E003E007C00F801F069
:200BC00003E003C003C0000000000000018003C007E007E003C00180000000000000000056
:200BE000000000000000000007F00FFC1FFE3E0E3C063C7E3CFE3CEE3CC63CC63CC63CC622
:200C00003CC63CC63CC63CEE3CFE3C7C3C003E003FFC1FFC1FFC07FC0000000000000000C4
:200C2000000000000000000003E007F00FF81F3C3E1E3C0E3C0E3C0E3C0E3C0E3C0E3C0E16
:200C40003C0E3FFE3FFE3FFE3C0E3C0E3C0E3C0E3C0E3C0E3C0E3C0E000000000000000043
:200C600000000000000000003FF83FFC3FFE3C1E3C0E3C0E3C0E3C0E3C1E3FFC3FF83FF840
:200C80003FFC3C1E3C0E3C0E3C0E3C0E3C0E3C1E3FFE3FFE3FFC3FF8000000000000000007
:200CA000000000000000000007F81FFC1FFE3E1E3C0E3C003C003C003C003C003C003C00B3
:200CC0003C003C003C003C003C003C003C0E3E1E1FFE1FFC0FFC03F00000000000000000D0
:200CE00000000000000000003FF03FFC3FFC3C3E3C1E3C0E3C0E3C0E3C0E3C0E3C0E3C0E75
:200D00003C0E3C0E3C0E3C0E3C0E3C0E3C1E3C3E3FFE3FFC3FF83FF0000000000000000065
:200D200000000000000000003FFE3FFE3FFE3C003C003C003C003C003C003FF03FF03FF007
:200D40003FF03C003C003C003C003C003C003C003FFE3FFE3FFE3FFE0000000000000000CC
:200D600000000000000000003FFE3FFE3FFE3C003C003C003C003C003C003C003C003FF0AD
:200D80003FF03FF03FF03C003C003C003C003C003C003C003C003C000000000000000000AA
:200DA000000000000000000007F80FFC1FFE3E1E3C0E3C003C003C003C003C003C003C00C2
:200DC0003C003C003C3E3C3E3C3E3C0E3C0E3E1E3FFE1FFC0FFC07F00000000000000000E3
:200DE00000000000000000003C0E3C0E3C0E3C0E3C0E3C0E3C0E3C0E3C0E3FFE3FFE3FFEA2
:200E00003FFE3C0E3C0E3C0E3C0E3C0E3C0E3C0E3C0E3C0E3C0E3C0E000000000000000067
:200E2000000000000000000003F803F803F800E000E000E000E000E000E000E000E000E0E1
:200E400000E000E000E000E000E000E000E000E003F803F803F803F80000000000000000A6
:200E60000000000000000000000E000E000E000E000E000E000E000E000E000E000E000ECA
:200E8000000E000E000E000E000E3C0E3C0E3E1E3FFE1FFC1FFC07F00000000000000000B2
:200EA00000000000000000003C063C0E3C1E3C3E3C7C3CF83DF03FE03FC03F803F003E005F
:200EC0003F003F803FC03FE03DF03CF83C7C3C3E3C1E3C0E3C063C0200000000000000003F
:200EE00000000000000000003C003C003C003C003C003C003C003C003C003C003C003C0022
:200F00003C003C003C003C003C003C003C003C003FFE3FFE3FFE3FFE0000000000000000FD
:200F20000000000000000000780E780E7C1E7C1E7E3E7E3E7F7E7F7E7F7E7FFE7BEE7BEEB3
:200F400079CE79CE788E788E780E780E780E780E780E780E780E780E0000000000000000C7
:200F600000000000000000003C0E3C0E3E0E3E0E3F0E3F0E3F0E3F8E3F8E3FCE3FCE3DEE7F
:200F80003DEE3CFE3CFE3C7E3C7E3C7E3C3E3C3E3C1E3C1E3C0E3C0E000000000000000048
:200FA00000000000000000000FF81FFC3FFE3E1E3C0E3C0E3C0E3C0E3C0E3C0E3C0E3C0E26
:200FC0003C0E3C0E3C0E3C0E3C0E3C0E3C0E3E1E3FFE3FFE1FFC0FF8000000000000000013
:200FE00000000000000000003FF83FFC3FFE3C1E3C0E3C0E3C0E3C0E3C0E3C0E3C1E3FFE95
:201000003FFE3FFC3FF83C003C003C003C003C003C003C003C003C00000000000000000005
:20102000000000000000000007F81FFC1FFE3E1E3C0E3C0E3C0E3C0E3C0E3C0E3C0E3C0ECD
:201040003C0E3C0E3C0E3C0E3C0E3CEE3DFE3CFE3FFE1FFE1FFC07F8007E003E001E00062B
:2010600000000000000000003FF83FFC3FFE3C1E3C0E3C0E3C0E3C0E3C0E3C1E3C3C3FFCE8
:201080003FF83FFC3FFC3C1E3C0E3C0E3C0E3C0E3C0E3C0E3C0E3C0E0000000000000000F9
:2010A00000000000000000000FF81FFC3FFE3E1E3C0E3C003E003F001F800FC007E003F02A
:2010C00001F800FC007E003E001E000E3C0E3C1E3FFE3FFE1FFC0FF80000000000000000F3
:2010E00000000000000000001FFE1FFE1FFE01E001E001E001E001E001E001E001E001E0B0
:2011000001E001E001E001E001E001E001E001E001E001E001E001E0000000000000000043
:2011200000000000000000003C0E3C0E3C0E3C0E3C0E3C0E3C0E3C0E3C0E3C0E3C0E3C0E37
:201140003C0E3C0E3C0E3C0E3C0E3C0E3C0E3E1E3FFE1FFC1FFC07F00000000000000000C3
:2011600000000000000000003C0E3C0E3C0E3C0E3C0E3C0E3C0E3C0E3C0E3C0E3C0E3C0EF7
:201180003C0E3C0E3C0E1E1E0F3C0F3C07F807F803F001E000C000C000000000000000004D
:2011A0000000000000000000780E780E780E780E788E788E788E79CE79CE7BCE7BEE7BEE5C
:2011C0007FFE7FFE7F7E7F7E7E3E7E3E7E3E7C1E7C1E7C1E780E780E00000000000000000D
:2011E0000000000000000000380E3C1E1C1E1E3C0E3C0E380F78077007F007F003E003E079
:2012000003E007F007F007700F780F780E3C1E3C1C1C3C1E380E380E0000000000000000B6
:2012200000000000000000003C0E3C0E3C0E3C0E3C0E3C0E3C0E3C0E3C0E3E1E1F3E0FFC50
:2012400007F803F001E001E001E001E001E001E001E001E001E001E00000000000000000D2
:2012600000000000000000003FFE3FFE3FFE001E003E003C007C007800F000F001E001E089
:2012800003C003C007800F800F001E001E003C003FFE3FFE3FFE3FFE000000000000000037
:2012A000000000000000000003FC03FC03FC03C003C003C003C003C003C003C003C003C056
:2012C00003C003C003C003C003C003C003C003C003C003C003C003FC03FC03FC03FC0000B1
:2012E0000000000000000000E000E000F0007000780038003C001C001E000E000F00070084
:201300000780038003C001C001E000E000F0007000780038003C001C001E000E000E0006D6
:2013200000060002000000000FF00FF00FF000F000F000F000F000F000F000F000F000F038
:2013400000F000F000F000F000F000F000F000F000F000F000F00FF00FF00FF00FF0000041
:20136000000000000000000000C001E003F007F80FFC1F3E1E1E1C0E1806000000000000EE
:2013800000000000000000000000000000000000000000000000000000000000000000004D
:2013A00000000000000000000000000000000000000000000000000000000000000000002D
:2013C0000000000000000000000000000000000000000000FFFEFFFEFFFEFFFE0000000019
:2013E000000000000000000003E001E001F000F000F000780078003C001C00000000000010
:201400000000000000000000000000000000000000000000000000000000000000000000CC
:20142000000000000000000000000000000000000000000000000FF80FFC0FFE0FFE000E72
:20144000000E07FE1FFE1FFE3E1E3C0E3C0E3E0E3FFE1FFE1FFE07FE000000000000000087
:2014600000000000000000003C003C003C003C003C003C003C003FF03FFC3FFC3FFE3C1E8C
:201480003C0E3C0E3C0E3C0E3C0E3C0E3C0E3C1E3FFE3FFC3FFC3FF000000000000000000A
:2014A0000000000000000000000000000000000000000000000007F01FFC1FFC3FFE3E1E66
:2014C0003C0E3C003C003C003C003C003C0E3E1E3FFE1FFC1FFC07F0000000000000000086
:2014E0000000000000000000000E000E000E000E000E000E000E07FE1FFE1FFE3FFE3E0EC2
:201500003C0E3C0E3C0E3C0E3C0E3C0E3C0E3E0E1FFE1FFE0FFE03FE000000000000000031
:201520000000000000000000000000000000000000000000000007F81FFC1FFE3E1E3C0ECE
:201540003E1E3FFE3FFC3FF83C003C003C0E3E1E3FFE1FFC1FFC07F00000000000000000F8
:20156000000000000000000001F803FC03FE03DE03CE03C003C003C003C03FFC3FFC3FFC03
:201580003FFC03C003C003C003C003C003C003C003C003C003C003C00000000000000000AF
:2015A0000000000000000000000000000000000000000000000007FE1FFE1FFE3FFE3E0E63
:2015C0003C0E3C0E3C0E3C0E3C0E3C0E3C0E3E0E3FFE1FFE1FFE07FE000E000E001E0FFEF6
:2015E0000FFC0FF8000000003C003C003C003C003C003C003C003FF03FFC3FFC3FFE3C1EF9
:201600003C0E3C0E3C0E3C0E3C0E3C0E3C0E3C0E3C0E3C0E3C0E3C0E000000000000000052
:20162000000000000000000000C001E001E000C000000000000001E001E001E001E001E003
:2016400001E001E001E001E001E001E001E001E001E001E001E001E00000000000000000FE
:201660000000000000000000001C003E003E001C000000000000001E001E001E001E001E20
:20168000001E001E001E001E001E001E001E001E001E001E001E001E1C1E1E3E1FFE0FFC24
:2016A0000FF803E0000000003C003C003C003C003C003C003C003C0E3C1E3C3E3C7C3CF892
:2016C0003DF03FE03FC03F803FC03FE03DF03CF83C7C3C3E3C1E3C0E0000000000000000AB
:2016E000000000000000000003C003C003C003C003C003C003C003C003C003C003C003C0C6
:2017000003C003C003C003C003C003C003C003C003C003E001FE00FE00000000000000000E
:20172000000000000000000000000000000000000000000000003E3C7FFE7FFE7FFE7FFE3B
:2017400079CE79CE79CE79CE79CE79CE79CE79CE780E780E780E780E000000000000000039
:20176000000000000000000000000000000000000000000000003FF83FFC3FFC3FFE3C1E25
:201780003C0E3C0E3C0E3C0E3C0E3C0E3C0E3C0E3C0E3C0E3C0E3C0E0000000000000000D1
:2017A0000000000000000000000000000000000000000000000003F00FFC1FFC1FFE3E1E97
:2017C0003C0E3C0E3C0E3C0E3C0E3C0E3C0E3E1E3FFE1FFC1FFC07F000000000000000003D
:2017E000000000000000000000000000000000000000000000003FF03FFC3FFC3FFE3C1EAD
:201800003C0E3C0E3C0E3C0E3C0E3C0E3C0E3C1E3FFE3FFC3FFC3FF03C003C003C003C0096
:201820003C003C0000000000000000000000000000000000000007FE1FFE1FFE3FFE3E0E68
:201840003C0E3C0E3C0E3C0E3C0E3C0E3C0E3E0E3FFE1FFE1FFE07FE000E000E000E000E82
:20186000000E000E0000000000000000000000000000000000003DF83FFC3FFE3FFE3C1E08
:201880003C0E3C003C003C003C003C003C003C003C003C003C003C0000000000000000006A
:2018A000000000000000000000000000000000000000000000000FF81FFC1FFE3E1E3C0E43
:2018C0003E0E1F800FE007F801FC00FE3C3E3C0E3E1E1FFE1FFC0FF80000000000000000D5
:2018E0000000000000000000000003C003C003C003C003C003C03FFC3FFC3FFC3FFC03C0A7
:2019000003C003C003C003C003C003C003CE03CE03FE01FE01FC007800000000000000001E
:20192000000000000000000000000000000000000000000000003C0E3C0E3C0E3C0E3C0E35
:201940003C0E3C0E3C0E3C0E3C0E3C0E3C0E3E0E3FFE1FFE1FFE07FE0000000000000000B9
:20196000000000000000000000000000000000000000000000003C0E3C0E3C0E3C0E3C0EF5
:201980003C0E3C0E3C0E3C0E3C0E3E1E1F3E0FFC07F803F001E000C000000000000000007E
:2019A00000000000000000000000000000000000000000000000780E780E780E780E79CEC8
:2019C00079CE79CE79CE79CE79CE7BEE7FFE3FFE1F7C1E3C0C180808000000000000000058
:2019E00000000000000000000000000000000000000000000000700E780E7C1E3E3E1F7C32
:201A00000FFC0FF807F003E007F00FF81FFC1F7C3E3E7C1E780E700E00000000000000000C
:201A2000000000000000000000000000000000000000000000003C0E3C0E3C0E3C0E3C0E34
:201A40003C0E3C0E3C0E3C0E3C0E3C0E3C0E3E0E3FFE1FFE1FFE07FE000E000E001E003E40
:201A60000FFC0FF80000000000000000000000000000000000003FFE3FFE3FFE3FFE003E22
:201A8000007C00F801F003E007C00F801F003E003FFE3FFE3FFE3FFE000000000000000057
:201AA000000000000000000001F803F007C0078007000780078003C003C0038007800F0038
:201AC0003F003F000F000780038003C003C0078007800700078007C003F001F8000000009A
:201AE000000000000000000003E003E003E003E003E003E003E003E003E003E003E003E042
:201B000003E003E003E003E003E003E003E003E003E003E003E003E003E003E003E003E095
:201B200003E000000000000007E003F000F800780078007800F000F000F000F00078007CD4
:201B4000003E003E007C007800F000F000F000F000780078007800F803F007E0000000001B
:201B600000000000000000000000070E1F9E1FFE3FFC3CFC3870000000000000000000005B
:201B8000000000000000000000000000000000000000000000000000000000000000000045
:201BA000000000000000000007E01FF81FF83E7C3C3C3C3C3C3C3E7C1FF81FF807E000001F
:201BC000000000000000000000000000000000000000000000000000000000000000000005
:201BE00000000000C08F758F04C0B275B20175C8FF75C9FF75B20075C900D0B2D08F22C053
:201C00008F758F04C0B275B20143A00F43A10F75B20053A1F0D0B2D08F22C08F758F04C089
:201C2000B275B20075B1FFD0B2D08F22C08F758F04C0B275B200D287D28375B203D283D2B4
:201C40008775B20043860853867FD0B2D08F22C08F758F04C0B275B200D283D287438680C3
:201C6000121D50C287121D50C283121D50D0B2D08F22C08F758F04C0B275B200438680C25B
:201C800087121D50D283121D50D287121D5053867FD0B2D08F22C0E0C0F0C08F758F04C0D0
:201CA000B275B20075F008438680339287121D50D283121D50C283D5F0F053867F121D5025
:201CC000D283A287121D50C283D0B2D08FD0F0D0E022C08F758F04C0B275B200C0F0C0D01F
:201CE00075F00853867F121D50D283A28733121D50C283D5F0F0438680C287121D50D28310
:201D0000121D50C28353867FD0D0D0F0D0B2D08F22C08F758F04C0B275B200C0F0C0D0759F
:201D2000F00853867F121D50D283A28733121D50C283D5F0F0438680D287121D50D2831222
:201D40001D50C28353867FD0D0D0F0D0B2D08F22C0E0C0D075E01AD5E0FDD0D0D0E022C093
:201D6000E0C0D0C0F075F032121D78D5F0FAD5E0F4D0F0D0D0D0E022C0E0C0D075E0641270
:201D80001D50D5E0FAD0D0D0E022C0E0C0D0C0F0121C2C75F0FD121F2E7410121F27D5E029
:201DA000FA7430121EE6121F277430121EE6121F277430121EE6121F277420121EE6121F18
:201DC000277428121ED0121F27740F121ED0121F277401121ED0121F277406121ED0121F95
:201DE00027D0F0D0D0D0E022C0E0C0D0B480005046B42000503CB40C077401121ED0803A3A
:201E0000B40107740F121ED08030B40207740E121ED08026B40307740C121ED0801CB40D53
:201E2000077402121ED08012B40A0F74C0121ED08008121E968003121ED0D0D0D0E022C08F
:201E4000E0C0D0540F2430B43A0040022407121E96D0D0D0E022C0E0C0D0C4121E3FC4128F
:201E60001E3FD0D0D0E022C0E0C0D0E583121E56E582121E56D0D0D0E022C0E0C0D0C083A3
:201E8000C082E4936007121DE8A3021E82D082D083D0D0D0E022C0E0C0D0121EA6C4121EB5
:201EA000A6D0D0D0E022C0E0C0D0C0F0121F47D2F0C2F154F0030353F0C342F0121F2ED28A
:201EC000F1121F2EC2F1121F2ED0F0D0D0D0E022C0E0C0D0121EE6121F27C4121EE6121FC5
:201EE00027D0D0D0E022C0E0C0D0C0F0121F47C2F0C2F154F0030353F0C342F0121F2ED2D9
:201F0000F1121F2EC2F1121F2ED0F0D0D0D0E0227440121ED0740093121E9620E703A3807F
:201F2000F47480121ED022121D78121D7822C0E0C0D0121C4F7440121C96E5F0121C961257
:201F40001C72D0D0D0E022C0E0C0D0121C4F7441121C96121D11121C72F5F0D0D0D0E02224
:201F6000C0F0121F47C2F6121F2ED0F022C0F0121F47D2F6121F2ED0F022C0F0121F47C225
:201F8000F7121F2ED0F022C0F0121F47D2F7121F2ED0F02208200800C0E0C08F758F04C0F0
:201FA000B2C0BF75BF0075B2025390FD4390015391FE43910275B2005391FE43910275983B
:201FC0005075BE9B75BD11D0BFD0B2D08FD0E022F5993099FDC29922C0E0C0D0540F1220C8
:201FE000C8121FD0122031D0D0D0E022C0E0C0D0C0E0C4121FD8D0E0121FD8D0D0D0E0227B
:20200000C0E0C0D0E583121FECE582121FECD0D0D0E022C0E0C0D0C082C083E4936009126E
:202020001FD0122031A380F3D083D082D0D0D0E022C0E0C0D0109805D0D0D0E022E599B4A0
:2020400013F61098F380FB3098FDC298E599221220471220BB1220D2400EC4F812204712A3
:2020600020BB1220D2400148227850122047547F1220BBB40D02F622B40813B850077407A1
:20208000121FD080E618901F9412201380DD1220AD40EBB86E0280E6F60880E47850795051
:2020A000E6B4200508B870F822F70980F7B420004007B47F005002C322D322B47B005007A0
:2020C000B461004002942022B40A0040022407243022C394304010B40A00400A9407400771
:2020E000B41000B34001C322E61220D2221220E84009C4F9081220E8400149221220ED40EA
:202100000AF583081220ED4002F58222C08F758F0475D10075CAB075CE0A75CC8075D10655
:2021200075CC01D08F22C08F758F0475D10675CB2075D1000000E5CB20E0FB75D102E5CBF0
:2021400085CAF0D08F22C08F758F0475D10675CB1075D1000000E5CB20E0FB75D102E5CBE3
:2021600085CAF0D08F22C08F758F04C0D175D10075CA9075CE0075CC4075D10675CD01D07F
:20218000D1D08F22C08F758F04C0D175D106F5D275D1000000E5CB20E0FB75D102E5CB8584
:2021A000CAF0D0D1D08F22C08F758F0475D10075CAC075CC8075D10675CC01D08F22C08F88
:2021C000758F0475D10075CA8075CC8075D10675CC01D08F22C08F758F04C0D175D106F5F9
:2021E000CB75D1000000E5CB20E0FB75D102E5CB85CAF0D0D1D08F22C0E0C0D0C0F0C070BA
:20220000C071C072C073C074C075C076C07775570075560075550075540075530075520099
:2022200075510075500075F040E56833F568E56933F569E56A33F56AE56B33F56BE56C336A
:20224000F56CE56D33F56DE56E33F56EE56F33F56FE55033F550E55133F551E55233F55255
:20226000E55333F553E55433F554E55533F555E55633F556E55733F557C3E5509560F57079
:20228000E5519561F571E5529562F572E5539563F573E5549564F574E5559565F575E5560B
:2022A0009566F576E5579567F57740188577578576568575558574548573538572528571F2
:2022C00051857050B3E55833F558E55933F559E55A33F55AE55B33F55BE55C33F55CE55DAE
:2022E00033F55DE55E33F55EE55F33F55FD5F0030222F6022229D077D076D075D074D0733D
:20230000D072D071D070D0F0D0D0D0E022C0E0C0D0C070C071C072C073C074C075C076C073
:2023200077C078C079C07AC07BC07C757000757100757200757300757400757500757600AC
:20234000757700757800757900757A00757B00757C20EB13FBEA13FAE913F9E813F8502C72
:20236000EC2574F574ED3575F575EE3576F576EF3577F577E5703578F578E5713579F57982
:20238000E572357AF57AE573357BF57BC3EC33FCED33FDEE33FEEF33FFE57033F570E571D2
:2023A00033F571E57233F572E57333F573D57CA2A874A975AA76AB77AC78AD79AE7AAF7B95
:2023C000D07CD07BD07AD079D078D077D076D075D074D073D072D071D070D0D0D0E022C03D
:2023E000E0C0D0C070C071C072C073C074C075C07675700075710075720075730075740085
:20240000757500757610E913F9E813F85016EA2572F572EB3573F573E5703574F574E571E9
:202420003575F575C3EA33FAEB33FBE57033F570E57133F571D576CEA872A973AA74AB752C
:20244000D076D075D074D073D072D071D070D0D0D0E022C0E0C0D0C070C071C072C073C07F
:2024600074C075C076C077C078C079C07AC07BC07C757000757100757200757300757400A1
:20248000757500757600757700757800757900757A00757B00757C20E833F8E933F9EA336B
:2024A000FAEB33FBE57033F570E57133F571E57233F572E57333F573C3E5709CF574E571D6
:2024C0009DF575E5729EF576E5739FF577400C857470857571857672857773B3E57833F5FE
:2024E00078E57933F579E57A33F57AE57B33F57BD57CA5AC78AD79AE7AAF7BA870A971AAF3
:2025000072AB73D07CD07BD07AD079D078D077D076D075D074D073D072D071D070D0D0D02D
:20252000E022C0E0C0D0C070C071C072C073C074C075C0767570007571007572007573006A
:20254000757400757500757610E833F8E933F9E57033F570E57133F571C3E5709AF572E5AB
:20256000719BF5734006857270857371B3E57433F574E57533F575D576CFAA74AB75A870C2
:20258000A971D076D075D074D073D072D071D070D0D0D0E022C0E0C0D0E82CF8E93DF9EA95
:2025A0003EFAEB3FFB74003400FCD0D0D0E022C0E0C0D0E82AF8E93BF974003400FAD0D00F
:2025C000D0E022C0E0C0D0C3E89CF8E99DF9EA9EFAEB9FFB74009400FCD0D0D0E022C0E01E
:2025E000C0D0C3E89AF8E99BF974009400FAD0D0D0E022C0E0C0D0C007C006C005C0047F58
:20260000007E987D967C80122453ECC47F007E0F7D427C401224534CC0E07F007E017D865F
:202620007CA0122453ECC47F007E007D277C101224534CC0E07F007E007D037CE812245339
:20264000ECC47F007E007D007C641224534CC0E07F007E007D007C0A122453ECC448F8D0B2
:20266000E0F9D0E0FAD0E0FBD004D005D006D007D0D0D0E022C0E0C0D0C077C078C0797517
:2026800079057B007A0A122522E8C0E0EAF8EBF9D579EFD0E0FAD0E0C4F579D0E02579F906
:2026A000D0E0C4F579D0E02579F8D079D078D077D0D0D0E022C0D0C0F075F00A84C425F09C
:2026C000D0F0D0D022C0E0C0D0C0F0C007C006C005C004C070C071C072C073C074C075C093
:2026E00076C077887089718A728B73E570540FF574757500757600757700E57054F0C4758D
:20270000F00AA42574F574E571540F75F064A42574F574E57535F0F575E57154F0C475F045
:202720000AA475F064A42574F574E57535F0F575E572540F7900F87B277A101223DFE574CF
:2027400028F574E57539F575E5763AF576E5773BF577E57254F0C475F00AA47900F87B2763
:202760007A101223DFE57428F574E57539F575E5763AF576E5773BF577E573540F7B007A21
:20278000007900F87F007E0F7D427C4012230DE57428F574E57539F575E5763AF576E577BC
:2027A0003BF577E57354F0C47B007A007900F87F007E987D967C8012230DE57428F574E5F7
:2027C0007539F575E5763AF576E5773BF577A874A975AA76AB77D077D076D075D074D07309
:2027E000D072D071D070D004D005D006D007D0F0D0D0D0E022C0F0C0E0C0D0E8540FC0E0C3
:20280000E8C4540F75F00AA4D0F025F0C0E0E954F0C4C0E0E9540F75F064A4A9F0F8D0E096
:2028200075F00AA475F064A428F8E935F0F9D0E028F8740039F9D0D0D0E0D0F022C0D0C0F9
:20284000F0C070F57053700F54F0C475F00AA42570D070D0F0D0D022C083C082C0D0C08F4B
:20286000C0B2C0BF758F0475BF0143B70843B70453B6F743B60490F000A3E582458370F972
:2028800043B602E5B620E1FB30E0F5E5B7540F44A075BB98F5B753B7FB43B702E5B720E0AD
:1C28A000FB53B7F743B610D0BFD0B2D08FD0D0D082D08322438F0122538FFE2249
:00000001FF
