:2000000075817F7586FF7591FF75B1FF75C9FF755000755100C2B0D2B1D2801201BBC2B1F7
:20002000B2811201BB80F0C08F758F04C0B275B20175C8FF75C9FF75B20075C900D0B2D02E
:200040008F22C08F758F04C0B275B20143A00F43A10F75B20053A1F0D0B2D08F22C08F7547
:200060008F04C0B275B20075B1FFD0B2D08F22C08F758F04C0B275B200D287D28375B20364
:20008000D283D28775B20043860853867FD0B2D08F22C08F758F04C0B275B200D283D287C1
:2000A000438680120193C287120193C283120193D0B2D08F22C08F758F04C0B275B2004341
:2000C0008680C287120193D283120193D28712019353867FD0B2D08F22C0E0C0F0C08F75C2
:2000E0008F04C0B275B20075F008438680339287120193D283120193C283D5F0F053867FDF
:20010000120193D283A287120193C283D0B2D08FD0F0D0E022C08F758F04C0B275B200C0AD
:20012000F0C0D075F00853867F120193D283A28733120193C283D5F0F0438680C2871201DE
:2001400093D283120193C28353867FD0D0D0F0D0B2D08F22C08F758F04C0B275B200C0F071
:20016000C0D075F00853867F120193D283A28733120193C283D5F0F0438680D287120193EB
:20018000D283120193C28353867FD0D0D0F0D0B2D08F22C0E0C0D075E01AD5E0FDD0D0D0A3
:2001A000E022C0E0C0D0C0F075F0321201BBD5F0FAD5E0F4D0F0D0D0D0E022C0E0C0D075B9
:2001C000E064120193D5E0FAD0D0D0E022C0E0C0D0C0F012006F75F0FD1203717410120332
:2001E0006AD5E0FA743012032912036A743012032912036A743012032912036A742012031A
:200200002912036A742812031312036A740F12031312036A740112031312036A740612031E
:200220001312036AD0F0D0D0D0E022C0E0C0D0B480005046B42000503CB40C07740112034F
:2002400013803AB40107740F1203138030B40207740E1203138026B40307740C12031380C7
:200260001CB40D0774021203138012B40A0F74C012031380081202D98003120313D0D0D0B1
:20028000E022C0E0C0D0540F2430B43A00400224071202D9D0D0D0E022C0E0C0D0C41202B3
:2002A00082C4120282D0D0D0E022C0E0C0D0E583120299E582120299D0D0D0E022C0E0C0C5
:2002C000D0C083C082E493600712022BA30202C5D082D083D0D0D0E022C0E0C0D01202E9FC
:2002E000C41202E9D0D0D0E022C0E0C0D0C0F012038AD2F0C2F154F0030353F0C342F01243
:200300000371D2F1120371C2F1120371D0F0D0D0D0E022C0E0C0D012032912036AC41203EF
:200320002912036AD0D0D0E022C0E0C0D0C0F012038AC2F0C2F154F0030353F0C342F0122B
:200340000371D2F1120371C2F1120371D0F0D0D0D0E02274401203137400931202D920E79E
:2003600003A380F47480120313221201BB1201BB22C0E0C0D012009274401200D9E5F0120D
:2003800000D91200B5D0D0D0E022C0E0C0D012009274411200D91201541200B5F5F0D0D024
:2003A000D0E022C0F012038AC2F6120371D0F022C0F012038AD2F6120371D0F022C0F012BB
:2003C000038AC2F7120371D0F022C0F012038AD2F7120371D0F02208200800C0E0C08F755B
:2003E0008F04C0B2C0BF75BF0075B2025390FD4390015391FE43910275B2005391FE4391D3
:200400000275985075BE9B75BD11D0BFD0B2D08FD0E022F5993099FDC29922C0E0C0D054D5
:200420000F12050B120413120474D0D0D0E022C0E0C0D0C0E0C412041BD0E012041BD0D020
:20044000D0E022C0E0C0D0E58312042FE58212042FD0D0D0E022C0E0C0D0C082C083E493A3
:200460006009120413120474A380F3D083D082D0D0D0E022C0E0C0D0109805D0D0D0E022E4
:20048000E599B413F61098F380FB3098FDC298E5992212048A1204FE120515400EC4F81250
:2004A000048A1204FE12051540014822785012048A547F1204FEB40D02F622B40813B850C2
:2004C00007740712041380E6189003D712045680DD1204F040EBB86E0280E6F60880E47827
:2004E000507950E6B4200508B870F822F70980F7B420004007B47F005002C322D322B47BBA
:20050000005007B461004002942022B40A0040022407243022C394304010B40A00400A9443
:20052000074007B41000B34001C322E61205152212052B4009C4F90812052B40014922124C
:200540000530400AF583081205304002F58222C08F758F0475D10075CAB075CE0A75CC80E0
:2005600075D10675CC01D08F22C08F758F0475D10675CB2075D1000000E5CB20E0FB75D132
:2005800002E5CB85CAF0D08F22C08F758F0475D10675CB1075D1000000E5CB20E0FB75D1BF
:2005A00002E5CB85CAF0D08F22C08F758F04C0D175D10075CA9075CE0075CC4075D1067547
:2005C000CD01D0D1D08F22C08F758F04C0D175D106F5D275D1000000E5CB20E0FB75D102F7
:2005E000E5CB85CAF0D0D1D08F22C08F758F0475D10075CAC075CC8075D10675CC01D08FA0
:2006000022C08F758F0475D10075CA8075CC8075D10675CC01D08F22C08F758F04C0D1752F
:20062000D106F5CB75D1000000E5CB20E0FB75D102E5CB85CAF0D0D1D08F22C0E0C0D0C0E9
:20064000F0C070C071C072C073C074C075C076C0777557007556007555007554007553001C
:2006600075520075510075500075F040E56833F568E56933F569E56A33F56AE56B33F56B03
:20068000E56C33F56CE56D33F56DE56E33F56EE56F33F56FE55033F550E55133F551E55227
:2006A00033F552E55333F553E55433F554E55533F555E55633F556E55733F557C3E55095A0
:2006C00060F570E5519561F571E5529562F572E5539563F573E5549564F574E5559565F5D2
:2006E00075E5569566F576E5579567F5774018857757857656857555857454857353857266
:2007000052857151857050B3E55833F558E55933F559E55A33F55AE55B33F55BE55C33F5DF
:200720005CE55D33F55DE55E33F55EE55F33F55FD5F00302073902066CD077D076D075D0E2
:2007400074D073D072D071D070D0F0D0D0D0E022C0E0C0D0C070C071C072C073C074C0758E
:20076000C076C077C078C079C07AC07BC07C7570007571007572007573007574007575007D
:20078000757600757700757800757900757A00757B00757C20EB13FBEA13FAE913F9E813D7
:2007A000F8502CEC2574F574ED3575F575EE3576F576EF3577F577E5703578F578E57135D1
:2007C00079F579E572357AF57AE573357BF57BC3EC33FCED33FDEE33FEEF33FFE57033F58D
:2007E00070E57133F571E57233F572E57333F573D57CA2A874A975AA76AB77AC78AD79AE4F
:200800007AAF7BD07CD07BD07AD079D078D077D076D075D074D073D072D071D070D0D0D036
:20082000E022C0E0C0D0C070C071C072C073C074C075C07675700075710075720075730087
:20084000757400757500757610E913F9E813F85016EA2572F572EB3573F573E5703574F5A6
:2008600074E5713575F575C3EA33FAEB33FBE57033F570E57133F571D576CEA872A973AAD2
:2008800074AB75D076D075D074D073D072D071D070D0D0D0E022C0E0C0D0C070C071C072BA
:2008A000C073C074C075C076C077C078C079C07AC07BC07C75700075710075720075730073
:2008C000757400757500757600757700757800757900757A00757B00757C20E833F8E93374
:2008E000F9EA33FAEB33FBE57033F570E57133F571E57233F572E57333F573C3E5709CF566
:2009000074E5719DF575E5729EF576E5739FF577400C857470857571857672857773B3E5AF
:200920007833F578E57933F579E57A33F57AE57B33F57BD57CA5AC78AD79AE7AAF7BA870F2
:20094000A971AA72AB73D07CD07BD07AD079D078D077D076D075D074D073D072D071D070B5
:20096000D0D0D0E022C0E0C0D0C070C071C072C073C074C075C076757000757100757200BE
:20098000757300757400757500757610E833F8E933F9E57033F570E57133F571C3E5709AEB
:2009A000F572E5719BF5734006857270857371B3E57433F574E57533F575D576CFAA74ABDF
:2009C00075A870A971D076D075D074D073D072D071D070D0D0D0E022C0E0C0D0E82CF8E904
:2009E0003DF9EA3EFAEB3FFB74003400FCD0D0D0E022C0E0C0D0E82AF8E93BF97400340065
:200A0000FAD0D0D0E022C0E0C0D0C3E89CF8E99DF9EA9EFAEB9FFB74009400FCD0D0D0E021
:200A200022C0E0C0D0C3E89AF8E99BF974009400FAD0D0D0E022C0E0C0D0C007C006C005B4
:200A4000C0047F007E987D967C80120896ECC47F007E0F7D427C401208964CC0E07F007EAE
:200A6000017D867CA0120896ECC47F007E007D277C101208964CC0E07F007E007D037CE84C
:200A8000120896ECC47F007E007D007C641208964CC0E07F007E007D007C0A120896ECC4A0
:200AA00048F8D0E0F9D0E0FAD0E0FBD004D005D006D007D0D0D0E022C0E0C0D0C077C07891
:200AC000C0797579057B007A0A120965E8C0E0EAF8EBF9D579EFD0E0FAD0E0C4F579D0E0A4
:200AE0002579F9D0E0C4F579D0E02579F8D079D078D077D0D0D0E022C0D0C0F075F00A84BA
:200B0000C425F0D0F0D0D022C0E0C0D0C0F0C007C006C005C004C070C071C072C073C0748A
:200B2000C075C076C077887089718A728B73E570540FF574757500757600757700E570549C
:200B4000F0C475F00AA42574F574E571540F75F064A42574F574E57535F0F575E57154F021
:200B6000C475F00AA475F064A42574F574E57535F0F575E572540F7900F87B277A101208D5
:200B800022E57428F574E57539F575E5763AF576E5773BF577E57254F0C475F00AA479005E
:200BA000F87B277A10120822E57428F574E57539F575E5763AF576E5773BF577E573540F30
:200BC0007B007A007900F87F007E0F7D427C40120750E57428F574E57539F575E5763AF54E
:200BE00076E5773BF577E57354F0C47B007A007900F87F007E987D967C80120750E5742828
:200C0000F574E57539F575E5763AF576E5773BF577A874A975AA76AB77D077D076D075D04D
:200C200074D073D072D071D070D004D005D006D007D0F0D0D0D0E022C0F0C0E0C0D0E85496
:200C40000FC0E0E8C4540F75F00AA4D0F025F0C0E0E954F0C4C0E0E9540F75F064A4A9F06B
:200C6000F8D0E075F00AA475F064A428F8E935F0F9D0E028F8740039F9D0D0D0E0D0F0227D
:200C8000C0D0C0F0C070F57053700F54F0C475F00AA42570D070D0F0D0D022C083C082C0F6
:200CA000D0C08FC0B2C0BF758F0475BF0143B70843B70453B6F743B60490F000A3E582451B
:200CC0008370F943B602E5B620E1FB30E0F5E5B7540F44A075BB98F5B753B7FB43B702E554
:1F0CE000B720E0FB53B7F743B610D0BFD0B2D08FD0D0D082D08322438F0122538FFE226B
:00000001FF
