:2000000075817F7555007556007557007558007559007560001200C9B4FFFA12001E1200D0
:20002000C9F5551200C9F5561200C9F5571200C9F5581200C9F5591200C9F56022E555C3C0
:200040009550600F5004D2928002C292D2931200C4C293E556C39551600F5004D29480029F
:20006000C294D2951200C4C29522E557C39552600F5004D2B68002C2B6D2B71200C4C2B771
:20008000E558C39553600F5004D2B08002C2B0D2B11200C4C2B122E559C39553602550048F
:2000A000D2CC8002C2CCD2CD1200C4C2CDE559C39553600F5004D2CE8002C2CED2CF12007D
:2000C000C4C2CF227D0FDDFE2222C08F758F04C0B275B20175C8FF75C9FF75B20075C9002F
:2000E000D0B2D08F22C08F758F04C0B275B20143A00F43A10F75B20053A1F0D0B2D08F2219
:20010000C08F758F04C0B275B20075B1FFD0B2D08F22C08F758F04C0B275B200D287D28329
:2001200075B203D283D28775B20043860853867FD0B2D08F22C08F758F04C0B275B200D2D2
:2001400083D287438680120236C287120236C283120236D0B2D08F22C08F758F04C0B275CD
:20016000B200438680C287120236D283120236D28712023653867FD0B2D08F22C0E0C0F004
:20018000C08F758F04C0B275B20075F008438680339287120236D283120236C283D5F0F08A
:2001A00053867F120236D283A287120236C283D0B2D08FD0F0D0E022C08F758F04C0B275DF
:2001C000B200C0F0C0D075F00853867F120236D283A28733120236C283D5F0F0438680C21E
:2001E00087120236D283120236C28353867FD0D0D0F0D0B2D08F22C08F758F04C0B275B29F
:2002000000C0F0C0D075F00853867F120236D283A28733120236C283D5F0F0438680D287F8
:20022000120236D283120236C28353867FD0D0D0F0D0B2D08F22C0E0C0D075E01AD5E0FD84
:20024000D0D0D0E022C0E0C0D0C0F075F03212025ED5F0FAD5E0F4D0F0D0D0D0E022C0E009
:20026000C0D075E064120236D5E0FAD0D0D0E022C0E0C0D0C0F012011275F0FD12041474C5
:200280001012040DD5E0FA74301203CC12040D74301203CC12040D74301203CC12040D7410
:2002A000201203CC12040D74281203B612040D740F1203B612040D74011203B612040D7448
:2002C000061203B612040DD0F0D0D0D0E022C0E0C0D0B480005046B42000503CB40C077463
:2002E000011203B6803AB40107740F1203B68030B40207740E1203B68026B40307740C12BE
:2003000003B6801CB40D0774021203B68012B40A0F74C01203B6800812037C80031203B6BA
:20032000D0D0D0E022C0E0C0D0540F2430B43A004002240712037CD0D0D0E022C0E0C0D0D6
:20034000C4120325C4120325D0D0D0E022C0E0C0D0E58312033CE58212033CD0D0D0E0221C
:20036000C0E0C0D0C083C082E49360071202CEA3020368D082D083D0D0D0E022C0E0C0D0B1
:2003800012038CC412038CD0D0D0E022C0E0C0D0C0F012042DD2F0C2F154F0030353F0C3FD
:2003A00042F0120414D2F1120414C2F1120414D0F0D0D0D0E022C0E0C0D01203CC12040DB1
:2003C000C41203CC12040DD0D0D0E022C0E0C0D0C0F012042DC2F0C2F154F0030353F0C30B
:2003E00042F0120414D2F1120414C2F1120414D0F0D0D0D0E02274401203B674009312030A
:200400007C20E703A380F474801203B62212025E12025E22C0E0C0D0120135744012017C9D
:20042000E5F012017C120158D0D0D0E022C0E0C0D0120135744112017C1201F7120158F555
:20044000F0D0D0D0E022C0F012042DC2F6120414D0F022C0F012042DD2F6120414D0F022BC
:20046000C0F012042DC2F7120414D0F022C0F012042DD2F7120414D0F02208200800C0E02C
:20048000C08F758F04C0B2C0BF75BF0075B2025390FD4390015391FE43910275B200539140
:2004A000FE43910275985075BE9B75BD11D0BFD0B2D08FD0E022F5993099FDC29922C0E047
:2004C000C0D0540F1205AE1204B6120517D0D0D0E022C0E0C0D0C0E0C41204BED0E01204CA
:2004E000BED0D0D0E022C0E0C0D0E5831204D2E5821204D2D0D0D0E022C0E0C0D0C082C059
:2005000083E49360091204B6120517A380F3D083D082D0D0D0E022C0E0C0D0109805D0D0D4
:20052000D0E022E599B413F61098F380FB3098FDC298E5992212052D1205A11205B8400EC0
:20054000C4F812052D1205A11205B840014822785012052D547F1205A1B40D02F622B4083B
:2005600013B8500774071204B680E61890047A1204F980DD12059340EBB86E0280E6F608B9
:2005800080E478507950E6B4200508B870F822F70980F7B420004007B47F005002C322D38E
:2005A00022B47B005007B461004002942022B40A0040022407243022C394304010B40A0030
:2005C000400A94074007B41000B34001C322E61205B8221205CE4009C4F9081205CE400162
:2005E00049221205D3400AF583081205D34002F58222C08F758F0475D10075CAB075CE0A3E
:2006000075CC8075D10675CC01D08F22C08F758F0475D10675CB2075D1000000E5CB20E011
:20062000FB75D102E5CB85CAF0D08F22C08F758F0475D10675CB1075D1000000E5CB20E01E
:20064000FB75D102E5CB85CAF0D08F22C08F758F04C0D175D10075CA9075CE0075CC4075B1
:20066000D10675CD01D0D1D08F22C08F758F04C0D175D106F5D275D1000000E5CB20E0FB52
:2006800075D102E5CB85CAF0D0D1D08F22C08F758F0475D10075CAC075CC8075D10675CC17
:2006A00001D08F22C08F758F0475D10075CA8075CC8075D10675CC01D08F22C08F758F0435
:2006C000C0D175D106F5CB75D1000000E5CB20E0FB75D102E5CB85CAF0D0D1D08F22C0E093
:2006E000C0D0C0F0C070C071C072C073C074C075C076C077755700755600755500755400F4
:2007000075530075520075510075500075F040E56833F568E56933F569E56A33F56AE56B2D
:2007200033F56BE56C33F56CE56D33F56DE56E33F56EE56F33F56FE55033F550E55133F57B
:2007400051E55233F552E55333F553E55433F554E55533F555E55633F556E55733F557C341
:20076000E5509560F570E5519561F571E5529562F572E5539563F573E5549564F574E55556
:200780009565F575E5569566F576E5579567F5774018857757857656857555857454857320
:2007A00053857252857151857050B3E55833F558E55933F559E55A33F55AE55B33F55BE579
:2007C0005C33F55CE55D33F55DE55E33F55EE55F33F55FD5F0030207DC02070FD077D0768C
:2007E000D075D074D073D072D071D070D0F0D0D0D0E022C0E0C0D0C070C071C072C073C082
:2008000074C075C076C077C078C079C07AC07BC07C7570007571007572007573007574001D
:20082000757500757600757700757800757900757A00757B00757C20EB13FBEA13FAE91340
:20084000F9E813F8502CEC2574F574ED3575F575EE3576F576EF3577F577E5703578F578C7
:20086000E5713579F579E572357AF57AE573357BF57BC3EC33FCED33FDEE33FEEF33FFE5F9
:200880007033F570E57133F571E57233F572E57333F573D57CA2A874A975AA76AB77AC78EA
:2008A000AD79AE7AAF7BD07CD07BD07AD079D078D077D076D075D074D073D072D071D07032
:2008C000D0D0D0E022C0E0C0D0C070C071C072C073C074C075C0767570007571007572005F
:2008E000757300757400757500757610E913F9E813F85016EA2572F572EB3573F573E570BC
:200900003574F574E5713575F575C3EA33FAEB33FBE57033F570E57133F571D576CEA87259
:20092000A973AA74AB75D076D075D074D073D072D071D070D0D0D0E022C0E0C0D0C070C0F6
:2009400071C072C073C074C075C076C077C078C079C07AC07BC07C75700075710075720017
:20096000757300757400757500757600757700757800757900757A00757B00757C20E833FF
:20098000F8E933F9EA33FAEB33FBE57033F570E57133F571E57233F572E57333F573C3E5B2
:2009A000709CF574E5719DF575E5729EF576E5739FF577400C857470857571857672857719
:2009C00073B3E57833F578E57933F579E57A33F57AE57B33F57BD57CA5AC78AD79AE7AAFDA
:2009E0007BA870A971AA72AB73D07CD07BD07AD079D078D077D076D075D074D073D072D033
:200A000071D070D0D0D0E022C0E0C0D0C070C071C072C073C074C075C07675700075710053
:200A2000757200757300757400757500757610E833F8E933F9E57033F570E57133F571C352
:200A4000E5709AF572E5719BF5734006857270857371B3E57433F574E57533F575D576CF18
:200A6000AA74AB75A870A971D076D075D074D073D072D071D070D0D0D0E022C0E0C0D0E8A7
:200A80002CF8E93DF9EA3EFAEB3FFB74003400FCD0D0D0E022C0E0C0D0E82AF8E93BF974EB
:200AA000003400FAD0D0D0E022C0E0C0D0C3E89CF8E99DF9EA9EFAEB9FFB74009400FCD0CD
:200AC000D0D0E022C0E0C0D0C3E89AF8E99BF974009400FAD0D0D0E022C0E0C0D0C007C05F
:200AE00006C005C0047F007E987D967C80120939ECC47F007E0F7D427C401209394CC0E0F8
:200B00007F007E017D867CA0120939ECC47F007E007D277C101209394CC0E07F007E007DCD
:200B2000037CE8120939ECC47F007E007D007C641209394CC0E07F007E007D007C0A120995
:200B400039ECC448F8D0E0F9D0E0FAD0E0FBD004D005D006D007D0D0D0E022C0E0C0D0C0B6
:200B600077C078C0797579057B007A0A120A08E8C0E0EAF8EBF9D579EFD0E0FAD0E0C4F5D9
:200B800079D0E02579F9D0E0C4F579D0E02579F8D079D078D077D0D0D0E022C0D0C0F0756E
:200BA000F00A84C425F0D0F0D0D022C0E0C0D0C0F0C007C006C005C004C070C071C072C013
:200BC00073C074C075C076C077887089718A728B73E570540FF574757500757600757700FE
:200BE000E57054F0C475F00AA42574F574E571540F75F064A42574F574E57535F0F575E58D
:200C00007154F0C475F00AA475F064A42574F574E57535F0F575E572540F7900F87B277AA9
:200C2000101208C5E57428F574E57539F575E5763AF576E5773BF577E57254F0C475F00A0D
:200C4000A47900F87B277A101208C5E57428F574E57539F575E5763AF576E5773BF577E5A5
:200C600073540F7B007A007900F87F007E0F7D427C401207F3E57428F574E57539F575E5D9
:200C8000763AF576E5773BF577E57354F0C47B007A007900F87F007E987D967C801207F3C0
:200CA000E57428F574E57539F575E5763AF576E5773BF577A874A975AA76AB77D077D07641
:200CC000D075D074D073D072D071D070D004D005D006D007D0F0D0D0D0E022C0F0C0E0C0ED
:200CE000D0E8540FC0E0E8C4540F75F00AA4D0F025F0C0E0E954F0C4C0E0E9540F75F064FC
:200D0000A4A9F0F8D0E075F00AA475F064A428F8E935F0F9D0E028F8740039F9D0D0D0E081
:200D2000D0F022C0D0C0F0C070F57053700F54F0C475F00AA42570D070D0F0D0D022C08375
:200D4000C082C0D0C08FC0B2C0BF758F0475BF0143B70843B70453B6F743B60490F000A324
:200D6000E582458370F943B602E5B620E1FB30E0F5E5B7540F44A075BB98F5B753B7FB43A5
:200D8000B702E5B720E0FB53B7F743B610D0BFD0B2D08FD0D0D082D08322438F0122538F4B
:020DA000FE2231
:00000001FF
