:2000000075817FC08F758F04C0B275B2007586FF7591FFD0B2D08FC280C281C282C286C2C8
:2000200096C297020017D280D281D282D286D296D2972275F003C280C281C282C286C296A3
:20004000C29774051201D2D280D281D282D286D296D297D5F0E022C08F758F04C0B275B210
:200060000175C8FF75C9FF75B20075C900D0B2D08F22C08F758F04C0B275B20143A00F4378
:20008000A10F75B20053A1F0D0B2D08F22C08F758F04C0B275B20075B1FFD0B2D08F22C0CA
:2000A0008F758F04C0B275B200D287D28375B203D283D28775B20043860853867FD0B2D0E8
:2000C0008F22C08F758F04C0B275B200D283D2874386801201C3C2871201C3C2831201C378
:2000E000D0B2D08F22C08F758F04C0B275B200438680C2871201C3D2831201C3D28712010E
:20010000C353867FD0B2D08F22C0E0C0F0C08F758F04C0B275B20075F0084386803392877F
:200120001201C3D2831201C3C283D5F0F053867F1201C3D283A2871201C3C283D0B2D08F1C
:20014000D0F0D0E022C08F758F04C0B275B200C0F0C0D075F00853867F1201C3D283A287C4
:20016000331201C3C283D5F0F0438680C2871201C3D2831201C3C28353867FD0D0D0F0D01C
:20018000B2D08F22C08F758F04C0B275B200C0F0C0D075F00853867F1201C3D283A28733B0
:2001A0001201C3C283D5F0F0438680D2871201C3D2831201C3C28353867FD0D0D0F0D0B24D
:2001C000D08F22C0E0C0D075E01AD5E0FDD0D0D0E022C0E0C0D0C0F075F0321201EBD5F0A1
:2001E000FAD5E0F4D0F0D0D0D0E022C0E0C0D075E0641201C3D5E0FAD0D0D0E022C0E0C0EA
:20020000D0C0F012009F75F0FD1203A1741012039AD5E0FA743012035912039A7430120339
:200220005912039A743012035912039A742012035912039A742812034312039A740F120309
:200240004312039A740112034312039A740612034312039AD0F0D0D0D0E022C0E0C0D0B499
:2002600080005046B42000503CB40C077401120343803AB40107740F1203438030B40207B6
:20028000740E1203438026B40307740C120343801CB40D0774021203438012B40A0F74C083
:2002A00012034380081203098003120343D0D0D0E022C0E0C0D0540F2430B43A00400224B8
:2002C00007120309D0D0D0E022C0E0C0D0C41202B2C41202B2D0D0D0E022C0E0C0D0E58339
:2002E0001202C9E5821202C9D0D0D0E022C0E0C0D0C083C082E493600712025BA30202F5CD
:20030000D082D083D0D0D0E022C0E0C0D0120319C4120319D0D0D0E022C0E0C0D0C0F01212
:2003200003BAD2F0C2F154F0030353F0C342F01203A1D2F11203A1C2F11203A1D0F0D0D011
:20034000D0E022C0E0C0D012035912039AC412035912039AD0D0D0E022C0E0C0D0C0F01239
:2003600003BAC2F0C2F154F0030353F0C342F01203A1D2F11203A1C2F11203A1D0F0D0D0E1
:20038000D0E022744012034374009312030920E703A380F47480120343221201EB1201EBCF
:2003A00022C0E0C0D01200C27440120109E5F01201091200E5D0D0D0E022C0E0C0D01200AB
:2003C000C274411201091201841200E5F5F0D0D0D0E022C0F01203BAC2F61203A1D0F022D6
:2003E000C0F01203BAD2F61203A1D0F022C0F01203BAC2F71203A1D0F022C0F01203BAD2FD
:20040000F71203A1D0F02208200800C0E0C08F758F04C0B2C0BF75BF0075B2025390FD43B5
:2004200090015391FE43910275B2005391FE43910275985075BE9B75BD11D0BFD0B2D08FB6
:20044000D0E022F5993099FDC29922C0E0C0D0540F12053B1204431204A4D0D0D0E022C0CF
:20046000E0C0D0C0E0C412044BD0E012044BD0D0D0E022C0E0C0D0E58312045FE58212043A
:200480005FD0D0D0E022C0E0C0D0C082C083E49360091204431204A4A380F3D083D082D058
:2004A000D0D0E022C0E0C0D0109805D0D0D0E022E599B413F61098F380FB3098FDC298E5F6
:2004C00099221204BA12052E120545400EC4F81204BA12052E1205454001482278501204EC
:2004E000BA547F12052EB40D02F622B40813B85007740712044380E6189004071204868068
:20050000DD12052040EBB86E0280E6F60880E478507950E6B4200508B870F822F70980F79B
:20052000B420004007B47F005002C322D322B47B005007B461004002942022B40A0040028E
:200540002407243022C394304010B40A00400A94074007B41000B34001C322E61205452238
:2005600012055B4009C4F90812055B40014922120560400AF583081205604002F58222C08A
:200580008F758F0475D10075CAB075CE0A75CC8075D10675CC01D08F22C08F758F0475D1D5
:2005A0000675CB2075D1000000E5CB20E0FB75D102E5CB85CAF0D08F22C08F758F0475D18F
:2005C0000675CB1075D1000000E5CB20E0FB75D102E5CB85CAF0D08F22C08F758F04C0D134
:2005E00075D10075CA9075CE0075CC4075D10675CD01D0D1D08F22C08F758F04C0D175D143
:2006000006F5D275D1000000E5CB20E0FB75D102E5CB85CAF0D0D1D08F22C08F758F0475F7
:20062000D10075CAC075CC8075D10675CC01D08F22C08F758F0475D10075CA8075CC807588
:20064000D10675CC01D08F22C08F758F04C0D175D106F5CB75D1000000E5CB20E0FB75D1D5
:2006600002E5CB85CAF0D0D1D08F22C0E0C0D0C0F0C070C071C072C073C074C075C076C062
:200680007775570075560075550075540075530075520075510075500075F040E56833F585
:2006A00068E56933F569E56A33F56AE56B33F56BE56C33F56CE56D33F56DE56E33F56EE595
:2006C0006F33F56FE55033F550E55133F551E55233F552E55333F553E55433F554E5553332
:2006E000F555E55633F556E55733F557C3E5509560F570E5519561F571E5529562F572E5DE
:20070000539563F573E5549564F574E5559565F575E5569566F576E5579567F577401885CB
:200720007757857656857555857454857353857252857151857050B3E55833F558E55933FD
:20074000F559E55A33F55AE55B33F55BE55C33F55CE55D33F55DE55E33F55EE55F33F55FA7
:20076000D5F00302076902069CD077D076D075D074D073D072D071D070D0F0D0D0D0E0224D
:20078000C0E0C0D0C070C071C072C073C074C075C076C077C078C079C07AC07BC07C757086
:2007A00000757100757200757300757400757500757600757700757800757900757A00759B
:2007C0007B00757C20EB13FBEA13FAE913F9E813F8502CEC2574F574ED3575F575EE3576B1
:2007E000F576EF3577F577E5703578F578E5713579F579E572357AF57AE573357BF57BC3F6
:20080000EC33FCED33FDEE33FEEF33FFE57033F570E57133F571E57233F572E57333F573A0
:20082000D57CA2A874A975AA76AB77AC78AD79AE7AAF7BD07CD07BD07AD079D078D077D024
:2008400076D075D074D073D072D071D070D0D0D0E022C0E0C0D0C070C071C072C073C074F7
:20086000C075C076757000757100757200757300757400757500757610E913F9E813F8506D
:2008800016EA2572F572EB3573F573E5703574F574E5713575F575C3EA33FAEB33FBE57046
:2008A00033F570E57133F571D576CEA872A973AA74AB75D076D075D074D073D072D071D0BF
:2008C00070D0D0D0E022C0E0C0D0C070C071C072C073C074C075C076C077C078C079C07ABF
:2008E000C07BC07C75700075710075720075730075740075750075760075770075780075DB
:200900007900757A00757B00757C20E833F8E933F9EA33FAEB33FBE57033F570E57133F5AB
:2009200071E57233F572E57333F573C3E5709CF574E5719DF575E5729EF576E5739FF57725
:20094000400C857470857571857672857773B3E57833F578E57933F579E57A33F57AE57B8B
:2009600033F57BD57CA5AC78AD79AE7AAF7BA870A971AA72AB73D07CD07BD07AD079D07864
:20098000D077D076D075D074D073D072D071D070D0D0D0E022C0E0C0D0C070C071C072C046
:2009A00073C074C075C076757000757100757200757300757400757500757610E833F8E9C1
:2009C00033F9E57033F570E57133F571C3E5709AF572E5719BF5734006857270857371B3D4
:2009E000E57433F574E57533F575D576CFAA74AB75A870A971D076D075D074D073D072D05D
:200A000071D070D0D0D0E022C0E0C0D0E82CF8E93DF9EA3EFAEB3FFB74003400FCD0D0D0FD
:200A2000E022C0E0C0D0E82AF8E93BF974003400FAD0D0D0E022C0E0C0D0C3E89CF8E99D54
:200A4000F9EA9EFAEB9FFB74009400FCD0D0D0E022C0E0C0D0C3E89AF8E99BF9740094002E
:200A6000FAD0D0D0E022C0E0C0D0C007C006C005C0047F007E987D967C801208C6ECC47F11
:200A8000007E0F7D427C401208C64CC0E07F007E017D867CA01208C6ECC47F007E007D2734
:200AA0007C101208C64CC0E07F007E007D037CE81208C6ECC47F007E007D007C641208C633
:200AC0004CC0E07F007E007D007C0A1208C6ECC448F8D0E0F9D0E0FAD0E0FBD004D005D0E3
:200AE00006D007D0D0D0E022C0E0C0D0C077C078C0797579057B007A0A120995E8C0E0EABB
:200B0000F8EBF9D579EFD0E0FAD0E0C4F579D0E02579F9D0E0C4F579D0E02579F8D079D0A8
:200B200078D077D0D0D0E022C0D0C0F075F00A84C425F0D0F0D0D022C0E0C0D0C0F0C0074F
:200B4000C006C005C004C070C071C072C073C074C075C076C077887089718A728B73E57069
:200B6000540FF574757500757600757700E57054F0C475F00AA42574F574E571540F75F058
:200B800064A42574F574E57535F0F575E57154F0C475F00AA475F064A42574F574E57535F3
:200BA000F0F575E572540F7900F87B277A10120852E57428F574E57539F575E5763AF57631
:200BC000E5773BF577E57254F0C475F00AA47900F87B277A10120852E57428F574E575391A
:200BE000F575E5763AF576E5773BF577E573540F7B007A007900F87F007E0F7D427C4012CE
:200C00000780E57428F574E57539F575E5763AF576E5773BF577E57354F0C47B007A007995
:200C200000F87F007E987D967C80120780E57428F574E57539F575E5763AF576E5773BF50C
:200C400077A874A975AA76AB77D077D076D075D074D073D072D071D070D004D005D006D036
:200C600007D0F0D0D0D0E022C0F0C0E0C0D0E8540FC0E0E8C4540F75F00AA4D0F025F0C0B9
:200C8000E0E954F0C4C0E0E9540F75F064A4A9F0F8D0E075F00AA475F064A428F8E935F03B
:200CA000F9D0E028F8740039F9D0D0D0E0D0F022C0D0C0F0C070F57053700F54F0C475F07F
:200CC0000AA42570D070D0F0D0D022C083C082C0D0C08FC0B2C0BF758F0475BF0143B7087B
:200CE00043B70453B6F743B60490F000A3E582458370F943B602E5B620E1FB30E0F5E5B70B
:200D0000540F44A075BB98F5B753B7FB43B702E5B720E0FB53B7F743B610D0BFD0B2D08F06
:0F0D2000D0D0D082D08322438F0122538FFE2266
:00000001FF
