:2000000075817F121B07121CAD121E831200AA90008F121D9D7E007D007C077BE07A007936
:2000200000741212023F7E207D007C007B007AFF79E090009F1202747E407D007CF87B0022
:200040007A0779FF9000A51202747E607D007C007B007AFF79FF740012023F04C0E0EBC38E
:200060009401FBEC9400FCE92401F9EA3400FAD0E0C006C005C004C0037E827D007C847B9B
:200080007F12029DD003D004D005D0060200580C7A696520646520616C206965743F005366
:2000A00075706572004D6172630075931FC0F0C0E0C007C0D075F000D2F285F0927F32DF73
:2000C000FED2F485F0927403121C8274111200F77403121C8274291200F77403121C827438
:2000E0003A1200F7740512012F740C120167D0D0D007D0E0D0F022C0E0C0F0C0D0C00775E3
:20010000F000C2F2D2F4C2F3C2F085F0927F083392F185F092D2F085F092C2F085F092DF62
:20012000EED2F285F092D007D0D0D0F0D0E022C0E0C0F0C0D0C00775F000C2F2D2F4D2F3B2
:20014000C2F085F0927F083392F185F092D2F085F092C2F085F092DFEED2F285F092D007B1
:20016000D0D0D0F0D0E022C0E0C0D0C0F0C083C082C007B40C43742A1200F7740012012FC1
:2001800012012F12012F747F12012F742B1200F7740012012F12012F12012F749F12012F6F
:2001A000742C1200F7E47FA075F08012012F12012FD5F0F7DFF2020232C3942075F040A4A7
:2001C0009003072582F582E58335F0F583742A1200F7740012012FED12012F740012012F20
:2001E000ED240F12012F742B1200F7740012012FEE12012F740012012FEE241F12012F7472
:200200002C1200F77F4075F008E493334012C0E0EA12012FE912012FD0E0D5F0EE02022FF4
:20022000C0E0EC12012FEB12012FD0E0D5F0DCA3DFD4D007D082D083D0F0D0D0D0E022C0AE
:20024000E0C0F0C0D0C005C0E0C412025FED2410FDD0E012025FD005D0D0D0F0D0E022C0DA
:20026000E0C0F0C0D0540F121FEB120167D0D0D0F0D0E022C0E0C0F0C0D0C083C082C00509
:20028000E493B4000DD005D082D083D0D0D0F0D0E022120167ED2410FDA3020280C0E0C05B
:2002A000F0C0D0C007C000742A1200F7740012012FED12012F740012012FEB12012F742B29
:2002C0001200F7740012012FEE12012F740012012FEC12012F742C1200F7EBC39D04F5F06E
:2002E000ECC39E04A4AFF0F8EA12012FE912012FE8C39401F8EF9400FF4870ECD000D00716
:20030000D0D0D0F0D0E02200000000000000000000000000000000000000000000000000AB
:200320000000000000000000000000000000000000000000000000000000000000000000BD
:20034000000000000000000000000003F003F001E001E001E001E001E001E001E001E000AF
:20036000C000C000C000C000C000000000000000C001E003F003F001E000C0000000000095
:2003800000000000000000000000003E7C3E7C3C3C1C381C381C38181818181818000000E5
:2003A00000000000000000000000000000000000000000000000000000000000000000003D
:2003C000000000000000000000000000000F3C0F3C0F3C0F3C0F3C0F3C3FFE3FFE3FFE3F65
:2003E000FE0F3C0F3C0F3C0F3C3FFE3FFE3FFE0F3C0F3C0F3C0F3C0F3C0F3C00000000005A
:20040000000000000000000000000000C007F00FFC1FFE3CDE38CE38C038C038C03CC01EDB
:20042000C00FE007F803FC00DE00CE00C600C600C638CE3CDE1FFC0FFC07F000C000C00054
:20044000C000C000000000000000001F003F807BC071C060C271C67BCE3F9E1F3C00780080
:20046000F001E003C007800F001E003C0078F871FC63DE438E0306038E03DE01FC00F80099
:20048000000000000000000000000007F00FF81E381C1C1C1C1C1C1C1C1C380E780FF00748
:2004A000E00F860FCE1FCE3DFC38FC38783870387838783CFC1FCE0FC607060000000000D1
:2004C000000000000000000000000003C003C003C003C003C003C003C0078007800F000E9C
:2004E0000000000000000000000000000000000000000000000000000000000000000000FC
:200500000000000000000000000000001C003C007800F001E003C003C0078007800F000F88
:20052000000F000E000E000F000F000F00078007C003E001F000F00078003C001C000C0075
:2005400000000000000000000000000E000F00078003C001E000F000F000780078003C0047
:200560003C003C001C001C003C003C003C007800F801F003E003C007800F000E000C000060
:200580000000000000000000000000000000000000381C3C3C3E7C1FF80FF007E07FFE7FDC
:2005A000FE7FFE07E00FF01FF83E7C3C3C381C00000000000000000000000000000000003D
:2005C00000000000000000000000000000000000000000000001E001E001E001E01FFE1F5B
:2005E000FE1FFE1FFE01E001E001E001E0000000000000000000000000000000000000003F
:200600000000000000000000000000000000000000000000000000000000000000000000DA
:2006200000000000000000000000000000000001C003E003E003E003E001E001C003C00305
:200640008007800F000C00000000000000000000000000000000000000000000001FFE1F3C
:20066000FE1FFE1FFE00000000000000000000000000000000000000000000000000000042
:2006800000000000000000000000000000000000000000000000000000000000000000005A
:2006A00000000000000000000000000000000007800FC00FC00FC00FC007800000000000F0
:2006C0000000000000000000000000000E000E001E001E003E003C007C007800F800F0016B
:2006E000F001E003E003C007C007800F800F001F001E003E003C007C007800F800F000F014
:2007000000E000E000C0000000000003F00FFC1FFC3E1E3C0E3C0E3C0E3C1E3C3E3C7E3C3C
:20072000FE3DEE3FCE3F8E3F0E3E0E3C0E3C0E3C0E3E1E3FFE1FFC0FFC03F000000000008D
:2007400000000000000000000000000030007000F001F003F007F00FF000F000F000F0005F
:20076000F000F000F000F000F000F000F000F000F000F000F000F000F000F0000000000059
:20078000000000000000000000000007F01FFC1FFC3E3E3C1E3C0E000E000E001E003E0094
:2007A0007C01FC03F00FE01F801E003C003C003C003C003FFE3FFE3FFE3FFE00000000003D
:2007C000000000000000000000000007F01FFC1FFC3C1E380E000E000E001E003C03FC03D4
:2007E000F803F803FC003C001E000E000E000E380E3C1E3FFC1FFC0FF803E00000000000A3
:200800000000000000000000000000003C007C007C00FC01FC01FC03FC03BC07BC0F3C0ED4
:200820003C1E3C3C3C383C703C7FFE7FFE7FFE003C003C003C003C003C003C0000000000AB
:2008400000000000000000000000003FFE3FFE3C003C003C003C003C003FF03FFC3FFC3815
:200860001E000E000E000E000E000E000E000E380E3C1E3E3E1FFC0FF803E00000000000D7
:20088000000000000000000000000003F80FFC1FFE1E0E3C063C003C003C003C003FF03F69
:2008A000FC3FFC3E1E3C0E3C0E3C0E3C0E3C0E3C0E3C0E1E1E1FFC0FFC03F000000000004A
:2008C00000000000000000000000003FFE3FFE3FFE001E001E003C003C003C007800780081
:2008E0007000F000F001E001E003C003C00780078007000F000E001E001E000000000000F2
:20090000000000000000000000000007F01FFC1E3C3C1E380E380E380E3C1E1E3C0FF8077D
:20092000F00FF81E3C3C1E380E380E380E380E380E3C1E3E3E1FFC0FF803E00000000000D3
:20094000000000000000000000000007F01FFC1E3C3C1E3C0E3C0E3C0E3C0E3C0E3C0E3ED7
:200960001E1FFE1FFE0FFE03EE000E000E000E001E003E0FFC0FFC0FF00F800000000000F7
:20098000000000000000000000000000000000000000000000018003C007E007E003C00181
:2009A0008000000000000000000000018003C007E007E003C0018000000000000000000061
:2009C00000000000000000000000000000000000000000000001C003E003E003E003E001C9
:2009E000C00000000000000000000001C003E003E003E003E003E001E001E001C003C00FB2
:200A0000800F0000000000000000000006000E001E003E007E00FC01F803F007E00FC01F9C
:200A2000803F003F001F800FC007E003F001F800FC007E003E001E000E000600020000008B
:200A40000000000000000000000000000000000000000000003FFE3FFE3FFE3FFE000000A2
:200A6000000000000000003FFE3FFE3FFE3FFE000000000000000000000000000000000082
:200A80000000000000000000000000300038003C003E001F000F8007C003E001F000F80033
:200AA0007C003E003E007C00F801F003E007C00F801F003E003C003800300020000000007F
:200AC000000000000000000000000007F01FFC3FFE3C1E380E000E000E001E003E007C0033
:200AE000F801F003E003C003C0000000000000018003C007E007E003C0018000000000004E
:200B0000000000000000000000000007F00FFC1FFE3E0E3C063C7E3CFE3CEE3CC63CC63CCA
:200B2000C63CC63CC63CC63CC63CEE3CFE3C7C3C003E003FFC1FFC1FFC07FC0000000000DD
:200B4000000000000000000000000003E007F00FF81F3C3E1E3C0E3C0E3C0E3C0E3C0E3C4F
:200B60000E3C0E3C0E3FFE3FFE3FFE3C0E3C0E3C0E3C0E3C0E3C0E3C0E3C0E0000000000CC
:200B800000000000000000000000003FF83FFC3FFE3C1E3C0E3C0E3C0E3C0E3C1E3FFC3F50
:200BA000F83FF83FFC3C1E3C0E3C0E3C0E3C0E3C0E3C1E3FFE3FFE3FFC3FF80000000000B9
:200BC000000000000000000000000007F81FFC1FFE3E1E3C0E3C003C003C003C003C003CD0
:200BE000003C003C003C003C003C003C003C003C0E3E1E1FFE1FFC0FFC03F0000000000075
:200C000000000000000000000000003FF03FFC3FFC3C3E3C1E3C0E3C0E3C0E3C0E3C0E3CAD
:200C20000E3C0E3C0E3C0E3C0E3C0E3C0E3C0E3C1E3C3E3FFE3FFC3FF83FF00000000000EE
:200C400000000000000000000000003FFE3FFE3FFE3C003C003C003C003C003C003FF03F07
:200C6000F03FF03FF03C003C003C003C003C003C003C003FFE3FFE3FFE3FFE00000000008E
:200C800000000000000000000000003FFE3FFE3FFE3C003C003C003C003C003C003C003CBD
:200CA000003FF03FF03FF03FF03C003C003C003C003C003C003C003C003C0000000000005C
:200CC000000000000000000000000007F80FFC1FFE3E1E3C0E3C003C003C003C003C003CDF
:200CE000003C003C003C003C3E3C3E3C3E3C0E3C0E3E1E3FFE1FFC0FFC07F0000000000088
:200D000000000000000000000000003C0E3C0E3C0E3C0E3C0E3C0E3C0E3C0E3C0E3FFE3FBD
:200D2000FE3FFE3FFE3C0E3C0E3C0E3C0E3C0E3C0E3C0E3C0E3C0E3C0E3C0E00000000000D
:200D4000000000000000000000000003F803F803F800E000E000E000E000E000E000E00082
:200D6000E000E000E000E000E000E000E000E000E000E003F803F803F803F80000000000C7
:200D80000000000000000000000000000E000E000E000E000E000E000E000E000E000E00C7
:200DA0000E000E000E000E000E000E000E3C0E3C0E3E1E3FFE1FFC1FFC07F0000000000077
:200DC00000000000000000000000003C063C0E3C1E3C3E3C7C3CF83DF03FE03FC03F803F7E
:200DE000003E003F003F803FC03FE03DF03CF83C7C3C3E3C1E3C0E3C063C020000000000E2
:200E000000000000000000000000003C003C003C003C003C003C003C003C003C003C003C3E
:200E2000003C003C003C003C003C003C003C003C003C003FFE3FFE3FFE3FFE0000000000A2
:200E40000000000000000000000000780E780E7C1E7C1E7E3E7E3E7F7E7F7E7F7E7FFE7BEB
:200E6000EE7BEE79CE79CE788E788E780E780E780E780E780E780E780E780E000000000051
:200E800000000000000000000000003C0E3C0E3E0E3E0E3F0E3F0E3F0E3F8E3F8E3FCE3F59
:200EA000CE3DEE3DEE3CFE3CFE3C7E3C7E3C7E3C3E3C3E3C1E3C1E3C0E3C0E000000000030
:200EC00000000000000000000000000FF81FFC3FFE3E1E3C0E3C0E3C0E3C0E3C0E3C0E3C5F
:200EE0000E3C0E3C0E3C0E3C0E3C0E3C0E3C0E3C0E3E1E3FFE3FFE1FFC0FF800000000009C
:200F000000000000000000000000003FF83FFC3FFE3C1E3C0E3C0E3C0E3C0E3C0E3C0E3CD0
:200F20001E3FFE3FFE3FFC3FF83C003C003C003C003C003C003C003C003C0000000000008B
:200F4000000000000000000000000007F81FFC1FFE3E1E3C0E3C0E3C0E3C0E3C0E3C0E3C06
:200F60000E3C0E3C0E3C0E3C0E3C0E3C0E3CEE3DFE3CFE3FFE1FFE1FFC07F8007E003E00D8
:200F80001E000600000000000000003FF83FFC3FFE3C1E3C0E3C0E3C0E3C0E3C0E3C1E3C1C
:200FA0003C3FFC3FF83FFC3FFC3C1E3C0E3C0E3C0E3C0E3C0E3C0E3C0E3C0E000000000063
:200FC00000000000000000000000000FF81FFC3FFE3E1E3C0E3C003E003F001F800FC007DE
:200FE000E003F001F800FC007E003E001E000E3C0E3C1E3FFE3FFE1FFC0FF8000000000001
:2010000000000000000000000000001FFE1FFE1FFE01E001E001E001E001E001E001E00151
:20102000E001E001E001E001E001E001E001E001E001E001E001E001E001E0000000000063
:2010400000000000000000000000003C0E3C0E3C0E3C0E3C0E3C0E3C0E3C0E3C0E3C0E3C70
:201060000E3C0E3C0E3C0E3C0E3C0E3C0E3C0E3C0E3E1E3FFE1FFC1FFC07F000000000004C
:2010800000000000000000000000003C0E3C0E3C0E3C0E3C0E3C0E3C0E3C0E3C0E3C0E3C30
:2010A0000E3C0E3C0E3C0E3C0E1E1E0F3C0F3C07F807F803F001E000C000C00000000000D6
:2010C0000000000000000000000000780E780E780E780E788E788E788E79CE79CE7BCE7B94
:2010E000EE7BEE7FFE7FFE7F7E7F7E7E3E7E3E7E3E7C1E7C1E7C1E780E780E000000000097
:201100000000000000000000000000380E3C1E1C1E1E3C0E3C0E380F78077007F007F0031C
:20112000E003E003E007F007F007700F780F780E3C1E3C1C1C3C1E380E380E0000000000D4
:2011400000000000000000000000003C0E3C0E3C0E3C0E3C0E3C0E3C0E3C0E3C0E3E1E1F7A
:201160003E0FFC07F803F001E001E001E001E001E001E001E001E001E001E000000000006A
:2011800000000000000000000000003FFE3FFE3FFE001E003E003C007C007800F000F0012B
:2011A000E001E003C003C007800F800F001E001E003C003FFE3FFE3FFE3FFE000000000057
:2011C000000000000000000000000003FC03FC03FC03C003C003C003C003C003C003C003BA
:2011E000C003C003C003C003C003C003C003C003C003C003C003C003C003FC03FC03FC030B
:20120000FC00000000000000000000E000E000F0007000780038003C001C001E000E000F6F
:201220000007000780038003C001C001E000E000F0007000780038003C001C001E000E00C4
:201240000E000600060002000000000FF00FF00FF000F000F000F000F000F000F000F000E5
:20126000F000F000F000F000F000F000F000F000F000F000F000F000F00FF00FF00FF00F32
:20128000F00000000000000000000000C001E003F007F80FFC1F3E1E1E1C0E1806000000DF
:2012A00000000000000000000000000000000000000000000000000000000000000000002E
:2012C00000000000000000000000000000000000000000000000000000000000000000000E
:2012E0000000000000000000000000000000000000000000000000FFFEFFFEFFFEFFFE00FA
:20130000000000000000000000000003E001E001F000F000F000780078003C001C000000F0
:201320000000000000000000000000000000000000000000000000000000000000000000AD
:20134000000000000000000000000000000000000000000000000000000FF80FFC0FFE0F5F
:20136000FE000E000E07FE1FFE1FFE3E1E3C0E3C0E3E0E3FFE1FFE1FFE07FE00000000005C
:2013800000000000000000000000003C003C003C003C003C003C003C003FF03FFC3FFC3FC5
:2013A000FE3C1E3C0E3C0E3C0E3C0E3C0E3C0E3C0E3C1E3FFE3FFC3FFC3FF0000000000093
:2013C0000000000000000000000000000000000000000000000000000007F01FFC1FFC3FA1
:2013E000FE3E1E3C0E3C003C003C003C003C003C0E3E1E3FFE1FFC1FFC07F000000000000D
:201400000000000000000000000000000E000E000E000E000E000E000E07FE1FFE1FFE3FEC
:20142000FE3E0E3C0E3C0E3C0E3C0E3C0E3C0E3C0E3E0E1FFE1FFE0FFE03FE0000000000C8
:201440000000000000000000000000000000000000000000000000000007F81FFC1FFE3E17
:201460001E3C0E3E1E3FFE3FFC3FF83C003C003C0E3E1E3FFE1FFC1FFC07F0000000000071
:20148000000000000000000000000001F803FC03FE03DE03CE03C003C003C003C03FFC3F1B
:2014A000FC3FFC3FFC03C003C003C003C003C003C003C003C003C003C003C0000000000059
:2014C0000000000000000000000000000000000000000000000000000007FE1FFE1FFE3F8E
:2014E000FE3E0E3C0E3C0E3C0E3C0E3C0E3C0E3C0E3E0E3FFE1FFE1FFE07FE000E000E00B8
:201500001E0FFE0FFC0FF8000000003C003C003C003C003C003C003C003FF03FFC3FFC3F06
:20152000FE3C1E3C0E3C0E3C0E3C0E3C0E3C0E3C0E3C0E3C0E3C0E3C0E3C0E0000000000DB
:20154000000000000000000000000000C001E001E000C000000000000001E001E001E001A5
:20156000E001E001E001E001E001E001E001E001E001E001E001E001E001E000000000001E
:201580000000000000000000000000001C003E003E001C000000000000001E001E001E003D
:2015A0001E001E001E001E001E001E001E001E001E001E001E001E001E001E1C1E1E3E1FD2
:2015C000FE0FFC0FF803E0000000003C003C003C003C003C003C003C003C0E3C1E3C3E3C1A
:2015E0007C3CF83DF03FE03FC03F803FC03FE03DF03CF83C7C3C3E3C1E3C0E0000000000DC
:20160000000000000000000000000003C003C003C003C003C003C003C003C003C003C00329
:20162000C003C003C003C003C003C003C003C003C003C003C003E001FE00FE00000000006C
:20164000000000000000000000000000000000000000000000000000003E3C7FFE7FFE7F97
:20166000FE7FFE79CE79CE79CE79CE79CE79CE79CE79CE780E780E780E780E00000000009F
:20168000000000000000000000000000000000000000000000000000003FF83FFC3FFC3F5E
:2016A000FE3C1E3C0E3C0E3C0E3C0E3C0E3C0E3C0E3C0E3C0E3C0E3C0E3C0E00000000005A
:2016C0000000000000000000000000000000000000000000000000000003F00FFC1FFC1FD2
:2016E000FE3E1E3C0E3C0E3C0E3C0E3C0E3C0E3C0E3E1E3FFE1FFC1FFC07F00000000000C4
:20170000000000000000000000000000000000000000000000000000003FF03FFC3FFC3FE5
:20172000FE3C1E3C0E3C0E3C0E3C0E3C0E3C0E3C0E3C1E3FFE3FFC3FFC3FF03C003C003C5B
:20174000003C003C003C0000000000000000000000000000000000000007FE1FFE1FFE3F57
:20176000FE3E0E3C0E3C0E3C0E3C0E3C0E3C0E3C0E3E0E3FFE1FFE1FFE07FE000E000E0035
:201780000E000E000E000E0000000000000000000000000000000000003DF83FFC3FFE3F25
:2017A000FE3C1E3C0E3C003C003C003C003C003C003C003C003C003C003C000000000000F3
:2017C000000000000000000000000000000000000000000000000000000FF81FFC1FFE3E8C
:2017E0001E3C0E3E0E1F800FE007F801FC00FE3C3E3C0E3E1E1FFE1FFC0FF800000000004E
:201800000000000000000000000000000003C003C003C003C003C003C03FFC3FFC3FFC3F46
:20182000FC03C003C003C003C003C003C003C003CE03CE03FE01FE01FC0078000000000040
:20184000000000000000000000000000000000000000000000000000003C0E3C0E3C0E3C6E
:201860000E3C0E3C0E3C0E3C0E3C0E3C0E3C0E3C0E3E0E3FFE1FFE1FFE07FE000000000042
:20188000000000000000000000000000000000000000000000000000003C0E3C0E3C0E3C2E
:2018A0000E3C0E3C0E3C0E3C0E3C0E3C0E3E1E1F3E0FFC07F803F001E000C0000000000007
:2018C00000000000000000000000000000000000000000000000000000780E780E780E78FE
:2018E0000E79CE79CE79CE79CE79CE79CE7BEE7FFE3FFE1F7C1E3C0C1808080000000000E4
:2019000000000000000000000000000000000000000000000000000000700E780E7C1E3EEB
:201920003E1F7C0FFC0FF807F003E007F00FF81FFC1F7C3E3E7C1E780E700E000000000014
:20194000000000000000000000000000000000000000000000000000003C0E3C0E3C0E3C6D
:201960000E3C0E3C0E3C0E3C0E3C0E3C0E3C0E3C0E3E0E3FFE1FFE1FFE07FE000E000E0025
:201980001E003E0FFC0FF80000000000000000000000000000000000003FFE3FFE3FFE3FE3
:2019A000FE003E007C00F801F003E007C00F801F003E003FFE3FFE3FFE3FFE0000000000FC
:2019C000000000000000000000000001F803F007C0078007000780078003C003C0038007A8
:2019E000800F003F003F000F000780038003C003C0078007800700078007C003F001F800EC
:201A0000000000000000000000000003E003E003E003E003E003E003E003E003E003E003E5
:201A2000E003E003E003E003E003E003E003E003E003E003E003E003E003E003E003E00376
:201A4000E003E003E000000000000007E003F000F800780078007800F000F000F000F000E6
:201A600078007C003E003E007C007800F000F000F000F000780078007800F803F007E00008
:201A800000000000000000000000000000070E1F9E1FFE3FFC3CFC3870000000000000003C
:201AA000000000000000000000000000000000000000000000000000000000000000000026
:201AC000000000000000000000000007E01FF81FF83E7C3C3C3C3C3C3C3E7C1FF81FF807E0
:201AE000E00000000000000000000000000000000000000000000000000000000000000006
:201B000000000000000000C08F758F04C0B275B20175C8FF75C9FF75B20075C900D0B2D0A4
:201B20008F22C08F758F04C0B275B20143A00F43A10F75B20053A1F0D0B2D08F22C08F754C
:201B40008F04C0B275B20075B1FFD0B2D08F22C08F758F04C0B275B200D287D28375B20369
:201B6000D283D28775B20043860853867FD0B2D08F22C08F758F04C0B275B200D283D287C6
:201B8000438680121C73C287121C73C283121C73D0B2D08F22C08F758F04C0B275B2004355
:201BA0008680C287121C73D283121C73D287121C7353867FD0B2D08F22C0E0C0F0C08F75D6
:201BC0008F04C0B275B20075F008438680339287121C73D283121C73C283D5F0F053867FEE
:201BE000121C73D283A287121C73C283D0B2D08FD0F0D0E022C08F758F04C0B275B200C0BD
:201C0000F0C0D075F00853867F121C73D283A28733121C73C283D5F0F0438680C287121CD2
:201C200073D283121C73C28353867FD0D0D0F0D0B2D08F22C08F758F04C0B275B200C0F09B
:201C4000C0D075F00853867F121C73D283A28733121C73C283D5F0F0438680D287121C73FF
:201C6000D283121C73C28353867FD0D0D0F0D0B2D08F22C0E0C0D075E01AD5E0FDD0D0D0AD
:201C8000E022C0E0C0D0C0F075F032121C9BD5F0FAD5E0F4D0F0D0D0D0E022C0E0C0D075C3
:201CA000E064121C73D5E0FAD0D0D0E022C0E0C0D0C0F0121B4F75F0FD121E517410121E2B
:201CC0004AD5E0FA7430121E09121E4A7430121E09121E4A7430121E09121E4A7420121E42
:201CE00009121E4A7428121DF3121E4A740F121DF3121E4A7401121DF3121E4A7406121D50
:201D0000F3121E4AD0F0D0D0D0E022C0E0C0D0B480005046B42000503CB40C077401121D5F
:201D2000F3803AB40107740F121DF38030B40207740E121DF38026B40307740C121DF380FE
:201D40001CB40D077402121DF38012B40A0F74C0121DF38008121DB98003121DF3D0D0D0CD
:201D6000E022C0E0C0D0540F2430B43A0040022407121DB9D0D0D0E022C0E0C0D0C4121DA2
:201D800062C4121D62D0D0D0E022C0E0C0D0E583121D79E582121D79D0D0D0E022C0E0C0F9
:201DA000D0C083C082E4936007121D0BA3021DA5D082D083D0D0D0E022C0E0C0D0121DC910
:201DC000C4121DC9D0D0D0E022C0E0C0D0C0F0121E6AD2F0C2F154F0030353F0C342F01252
:201DE0001E51D2F1121E51C2F1121E51D0F0D0D0D0E022C0E0C0D0121E09121E4AC4121EF3
:201E000009121E4AD0D0D0E022C0E0C0D0C0F0121E6AC2F0C2F154F0030353F0C342F0125A
:201E20001E51D2F1121E51C2F1121E51D0F0D0D0D0E0227440121DF3740093121DB920E7BD
:201E400003A380F47480121DF322121C9B121C9B22C0E0C0D0121B727440121BB9E5F0122C
:201E60001BB9121B95D0D0D0E022C0E0C0D0121B727441121BB9121C34121B95F5F0D0D047
:201E8000D0E022C0F0121E6AC2F6121E51D0F022C0F0121E6AD2F6121E51D0F022C0F012D4
:201EA0001E6AC2F7121E51D0F022C0F0121E6AD2F7121E51D0F02208200800C0E0C08F7574
:201EC0008F04C0B2C0BF75BF0075B2025390FD4390015391FE43910275B2005391FE4391D8
:201EE0000275985075BE9B75BD11D0BFD0B2D08FD0E022F5993099FDC29922C0E0C0D054DB
:201F00000F121FEB121EF3121F54D0D0D0E022C0E0C0D0C0E0C4121EFBD0E0121EFBD0D042
:201F2000D0E022C0E0C0D0E583121F0FE582121F0FD0D0D0E022C0E0C0D0C082C083E493B2
:201F40006009121EF3121F54A380F3D083D082D0D0D0E022C0E0C0D0109805D0D0D0E022F4
:201F6000E599B413F61098F380FB3098FDC298E59922121F6A121FDE121FF5400EC4F81265
:201F80001F6A121FDE121FF5400148227850121F6A547F121FDEB40D02F622B40813B850E1
:201FA000077407121EF380E618901EB7121F3680DD121FD040EBB86E0280E6F60880E47841
:201FC000507950E6B4200508B870F822F70980F7B420004007B47F005002C322D322B47BBF
:201FE000005007B461004002942022B40A0040022407243022C394304010B40A00400A9449
:20200000074007B41000B34001C322E6121FF52212200B4009C4F90812200B400149221261
:202020002010400AF583081220104002F58222C08F758F0475D10075CAB075CE0A75CC80EF
:2020400075D10675CC01D08F22C08F758F0475D10675CB2075D1000000E5CB20E0FB75D137
:2020600002E5CB85CAF0D08F22C08F758F0475D10675CB1075D1000000E5CB20E0FB75D1C4
:2020800002E5CB85CAF0D08F22C08F758F04C0D175D10075CA9075CE0075CC4075D106754C
:2020A000CD01D0D1D08F22C08F758F04C0D175D106F5D275D1000000E5CB20E0FB75D102FC
:2020C000E5CB85CAF0D0D1D08F22C08F758F0475D10075CAC075CC8075D10675CC01D08FA5
:2020E00022C08F758F0475D10075CA8075CC8075D10675CC01D08F22C08F758F04C0D17535
:20210000D106F5CB75D1000000E5CB20E0FB75D102E5CB85CAF0D0D1D08F22C0E0C0D0C0EE
:20212000F0C070C071C072C073C074C075C076C07775570075560075550075540075530021
:2021400075520075510075500075F040E56833F568E56933F569E56A33F56AE56B33F56B08
:20216000E56C33F56CE56D33F56DE56E33F56EE56F33F56FE55033F550E55133F551E5522C
:2021800033F552E55333F553E55433F554E55533F555E55633F556E55733F557C3E55095A5
:2021A00060F570E5519561F571E5529562F572E5539563F573E5549564F574E5559565F5D7
:2021C00075E5569566F576E5579567F577401885775785765685755585745485735385726B
:2021E00052857151857050B3E55833F558E55933F559E55A33F55AE55B33F55BE55C33F5E5
:202200005CE55D33F55DE55E33F55EE55F33F55FD5F00302221902214CD077D076D075D0F1
:2022200074D073D072D071D070D0F0D0D0D0E022C0E0C0D0C070C071C072C073C074C07593
:20224000C076C077C078C079C07AC07BC07C75700075710075720075730075740075750082
:20226000757600757700757800757900757A00757B00757C20EB13FBEA13FAE913F9E813DC
:20228000F8502CEC2574F574ED3575F575EE3576F576EF3577F577E5703578F578E57135D6
:2022A00079F579E572357AF57AE573357BF57BC3EC33FCED33FDEE33FEEF33FFE57033F592
:2022C00070E57133F571E57233F572E57333F573D57CA2A874A975AA76AB77AC78AD79AE54
:2022E0007AAF7BD07CD07BD07AD079D078D077D076D075D074D073D072D071D070D0D0D03C
:20230000E022C0E0C0D0C070C071C072C073C074C075C0767570007571007572007573008C
:20232000757400757500757610E913F9E813F85016EA2572F572EB3573F573E5703574F5AB
:2023400074E5713575F575C3EA33FAEB33FBE57033F570E57133F571D576CEA872A973AAD7
:2023600074AB75D076D075D074D073D072D071D070D0D0D0E022C0E0C0D0C070C071C072BF
:20238000C073C074C075C076C077C078C079C07AC07BC07C75700075710075720075730078
:2023A000757400757500757600757700757800757900757A00757B00757C20E833F8E93379
:2023C000F9EA33FAEB33FBE57033F570E57133F571E57233F572E57333F573C3E5709CF56B
:2023E00074E5719DF575E5729EF576E5739FF577400C857470857571857672857773B3E5B5
:202400007833F578E57933F579E57A33F57AE57B33F57BD57CA5AC78AD79AE7AAF7BA870F7
:20242000A971AA72AB73D07CD07BD07AD079D078D077D076D075D074D073D072D071D070BA
:20244000D0D0D0E022C0E0C0D0C070C071C072C073C074C075C076757000757100757200C3
:20246000757300757400757500757610E833F8E933F9E57033F570E57133F571C3E5709AF0
:20248000F572E5719BF5734006857270857371B3E57433F574E57533F575D576CFAA74ABE4
:2024A00075A870A971D076D075D074D073D072D071D070D0D0D0E022C0E0C0D0E82CF8E909
:2024C0003DF9EA3EFAEB3FFB74003400FCD0D0D0E022C0E0C0D0E82AF8E93BF9740034006A
:2024E000FAD0D0D0E022C0E0C0D0C3E89CF8E99DF9EA9EFAEB9FFB74009400FCD0D0D0E027
:2025000022C0E0C0D0C3E89AF8E99BF974009400FAD0D0D0E022C0E0C0D0C007C006C005B9
:20252000C0047F007E987D967C80122376ECC47F007E0F7D427C401223764CC0E07F007EBD
:20254000017D867CA0122376ECC47F007E007D277C101223764CC0E07F007E007D037CE85B
:20256000122376ECC47F007E007D007C641223764CC0E07F007E007D007C0A122376ECC4B4
:2025800048F8D0E0F9D0E0FAD0E0FBD004D005D006D007D0D0D0E022C0E0C0D0C077C07896
:2025A000C0797579057B007A0A122445E8C0E0EAF8EBF9D579EFD0E0FAD0E0C4F579D0E0AE
:2025C0002579F9D0E0C4F579D0E02579F8D079D078D077D0D0D0E022C0D0C0F075F00A84BF
:2025E000C425F0D0F0D0D022C0E0C0D0C0F0C007C006C005C004C070C071C072C073C07490
:20260000C075C076C077887089718A728B73E570540FF574757500757600757700E57054A1
:20262000F0C475F00AA42574F574E571540F75F064A42574F574E57535F0F575E57154F026
:20264000C475F00AA475F064A42574F574E57535F0F575E572540F7900F87B277A101223BF
:2026600002E57428F574E57539F575E5763AF576E5773BF577E57254F0C475F00AA4790083
:20268000F87B277A10122302E57428F574E57539F575E5763AF576E5773BF577E573540F3A
:2026A0007B007A007900F87F007E0F7D427C40122230E57428F574E57539F575E5763AF558
:2026C00076E5773BF577E57354F0C47B007A007900F87F007E987D967C80122230E5742832
:2026E000F574E57539F575E5763AF576E5773BF577A874A975AA76AB77D077D076D075D053
:2027000074D073D072D071D070D004D005D006D007D0F0D0D0D0E022C0F0C0E0C0D0E8549B
:202720000FC0E0E8C4540F75F00AA4D0F025F0C0E0E954F0C4C0E0E9540F75F064A4A9F070
:20274000F8D0E075F00AA475F064A428F8E935F0F9D0E028F8740039F9D0D0D0E0D0F02282
:20276000C0D0C0F0C070F57053700F54F0C475F00AA42570D070D0F0D0D022C083C082C0FB
:20278000D0C08FC0B2C0BF758F0475BF0143B70843B70453B6F743B60490F000A3E5824520
:2027A0008370F943B602E5B620E1FB30E0F5E5B7540F44A075BB98F5B753B7FB43B702E559
:1F27C000B720E0FB53B7F743B610D0BFD0B2D08FD0D0D082D08322438F0122538FFE2270
:00000001FF
